:020000040800F2
:1000000070080020AD010008E13A000869300008DE
:10001000DD3900085D130008AD490008000000004C
:10002000000000000000000000000000273D000864
:100030006113000800000000253D00086D40000825
:10004000C7010008C7010008C7010008C701000870
:10005000C7010008C7010008C7010008C701000860
:10006000C7010008C7010008C7010008C701000850
:10007000C7010008C7010008C7010008C701000840
:10008000C7010008C7010008C70100080000000000
:10009000000000000000000000000000C701000890
:1000A000C701000845410008C7010008C701000852
:1000B000C701000891420008C7010008C7010008F5
:1000C000C7010008C7010008C7010008C7010008F0
:1000D000C7010008C7010008C701000800000000B0
:1000E000C7010008C7010008C701000800000000A0
:1000F000000000000000000000000000C701000830
:1001000000000000C7010008C7010008C70100087F
:1001100000000000000000000000000000000000DF
:10012000C7010008C7010008C7010008C70100088F
:10013000C7010008000000000000000000000000EF
:10014000000000000000000000000000C7010008DF
:10015000C7010008C7010008C7010008C70100085F
:10016000C7010008C70100080000000000000000EF
:10017000000000000000000000000000000000007F
:1001800000000000C701000800000000000000009F
:10019000C7010008C7010008DFF80CD000F064FBBD
:1001A000004800478D6D0008700800200648804711
:1001B00006480047FEE7FEE7FEE7FEE7FEE7FEE74C
:1001C000FEE7FEE7FEE7FEE7294100089901000887
:1001D0002DE9F05F0546002092469B46884606467C
:1001E000814640241BE0284641464746224600F00F
:1001F00036FA53465A46C01A914110D31146184652
:10020000224600F01DFA2D1A67EB01084F462246E0
:100210000120002100F014FA17EB00094E41201EC6
:10022000A4F10104DFDC484631462A464346BDE8D6
:10023000F09F2DE9F0410024061B254671F10006D0
:1002400005DA01240027D0EB070067EB0101161E39
:1002500073F1000605DA0027D2EB0702012567EBF0
:100260000303FFF7B5FF86460E4617469C46AC4291
:1002700004D00025D0EB050E65EB010624B100206B
:10028000D2EB000760EB030C704631463A466346FA
:10029000BDE8F081D2B201E000F8012B491EFBD28B
:1002A00070470022F6E710B513460A460446194681
:1002B000FFF7F0FF204610BD30B50446002003468E
:1002C00000E05B1C934203D2E05CCD5C401BF8D0A5
:1002D00030BD2DE9FE4F804681EA0300C00F0C4679
:1002E000009021F0004123F00045B8EB0200A94145
:1002F00005D24046214690461C460B46024623F056
:100300000040104347D0270DC7F30A00C3F30A513A
:100310000290401A019040286BDAC3F3130040F4B6
:10032000801B0098924620B10023D2EB030A63EBB6
:100330000B0B01985946C0F14002504600F080F97D
:1003400006460D4650465946019A00F098F910EBC2
:1003500008006141002487EA115284EAE7731A43D6
:1003600040D0009A62B3019A012A4FEA075215DC85
:10037000001B61EB02014FF0004202EA0752CDE997
:100380000042001C41F5801132462B4600F01EFA57
:1003900003B0BDE8F08F40462146F9E7001B61EB52
:1003A0000201001C41F5801300185B412018A2F5E2
:1003B000001747EB030140EAD570B6196D4111E013
:1003C0006D084FEA360645EAC0754FEA0752001B32
:1003D00061EB0201001C41F5801149084FEA300031
:1003E0000019514132462B4603B0BDE8F04F00F0F2
:1003F000DEB90098012240000023D0EB020263EB3B
:10040000E073009821464FEAE074B8EB000061EB1E
:100410000401E9E783F000435BE781F0004158E71E
:100420002DE9FE4F81EA030404F0004421F000416D
:1004300000944FF0000B23F0004350EA01045ED01B
:1004400052EA03045BD0C3F30A54C1F30A552C44A7
:10045000A4F2F3340194A0FB0254C1F3130141F45C
:100460008011C3F3130343F4801301FB024400FB28
:10047000034E840A970A44EA815447EA8357A4FB4F
:10048000076802958D0A05FB07854FEA932C04FB4C
:100490000C542705029D4FEA065847EA1637B5EB7C
:1004A00008056EEB070C870E920E47EA811742EAA9
:1004B0008312A7FB0201B6EB0B0164EB00042B0DCA
:1004C00043EA0C335E1844EB1C50DA465146E7FB16
:1004D0000201C5F313044FEA0B3343EA14534FEA06
:1004E0000432019C43EA0603A4F10C040294009C2C
:1004F000CDE900B400F06AF903B0BDE8F08F002048
:100500000146F9E72DE9F04D81EA030404F0004BC0
:1005100021F0004514464FF0000A23F0004150EA54
:10052000050220D054EA01021DD0C5F30A57024645
:10053000C5F31303C1F31300C1F30A5640F4801549
:1005400043F48013A7EB0608101BD64608F2FD38CB
:1005500073EB050002D308F1010801E092185B413A
:10056000B8F1000F03DA00200146BDE8F08D00204D
:100570004FF48011064684460EE0171B73EB050707
:1005800005D3121B63EB050306434CEA010C490833
:100590004FEA300092185B4150EA0107EDD152EA70
:1005A000030012D082EA040083EA0501084305D063
:1005B000101BAB4106D20122002306E000224FF0BF
:1005C000004302E06FF0010253101AEB06004CEBFF
:1005D000085110EB0A0041EB0B01BDE8F04D00F0B3
:1005E000E6B800F0004230F000400AD0C10D01F53D
:1005F0006071C0F3160042EA0151C208400711437E
:10060000704700200146704701F0004330B421F0EC
:10061000004150EA010206D00A0DA2F56072C1F352
:100620001301002A02DC30BC00207047440F44EA6A
:10063000C104C100E01830BC00EBC25000F080B82B
:10064000202A04DB203A00FA02F100207047914092
:10065000C2F1200320FA03F3194390407047202A87
:1006600004DB203A21FA02F00021704721FA02F35C
:10067000D040C2F120029140084319467047202A19
:1006800006DBCB17203A41FA02F043EAE07306E0BA
:1006900041FA02F3D040C2F12002914008431946CA
:1006A000704700000FB4002300B589B00CA9009179
:1006B0000B996FF00042CB601E4B06931E4B0793C5
:1006C0000423CDE901321D4A089202466B46002000
:1006D00000F076F909B05DF814FB70B586B00646F7
:1006E0004FF0FF300091CDE90101002015460C4686
:1006F00004903246694604A8FFF7D4FF02460498E6
:10070000211825B108B1084600E020462860049869
:1007100000280DD0002A02DD0098884208D0081B6E
:100720000094CDE901043246694604A8FFF7BAFFF8
:1007300006B070BDF90B0008170C00088D08000802
:100740000029A8BF7047401C490008BF20F00100E5
:10075000704710B4B0FA80FC00FA0CF050EA0104C3
:1007600004BF10BC704749B1CCF1200421FA04F455
:1007700011FA0CF118BF012121430843A3EB0C012E
:10078000CB1D4FEA00614FEA102042BF002010BC91
:10079000704700EBC35010440029A4BF10BC704741
:1007A000401C490008BF20F0010010BC704710B584
:1007B000141E73F1000408DA401C41F10001921884
:1007C0005B411A4301D120F0010010BD2DE9F04D2D
:1007D00092469B4611B1B1FA81F202E0B0FA80F282
:1007E00020329046FFF72CFF04460F4640EA0A00ED
:1007F00041EA0B0153465A46084313D0114653EAC7
:10080000010019D0C8F140025046FFF728FF054605
:100810000E46504659464246FFF712FF084305D0A0
:10082000012004E020463946BDE8F08D0020054354
:1008300046EAE0762C4337430A986305E40AA0EBC6
:1008400008000022FD0A44EA47540A3002D500207D
:100850000146E9E7010510196941DDE9084500197C
:100860006941BDE8F04DA2E7064C074D06E0E0689F
:1008700040F0010394E8070098471034AC42F6D3E7
:10088000FFF78EFC80990008A0990008C0B24FF4D1
:10089000F05100F023BA00002DE9FF4F087883B033
:1008A0009946FF2805D0491C2D2804D0002400209B
:1008B00008E000200BE00124F9E700EB800003EBE7
:1008C0004000491C0B78FF2BF7D104B140420023B4
:1008D0000293147819461D462D2C01D02B2C04D1DF
:1008E000521C2D2C13D000240294AA461478FF2CFD
:1008F0000FD00A25A3FB057801FB05814FF0000C02
:1009000003FB0C11521CE3194AEB0101EEE7012431
:10091000EAE7814453EA010002D019F5C87F06DAFC
:1009200003980021C0E9001107B0BDE8F08F002551
:10093000AE4E2F46DFF8B882184600F0E3F9CDE955
:100940000001B9F1000002DAC9F1000400E0044638
:100950000023A74A1AEB030B42EB045A12E0E0070C
:1009600007D02A46334638464146FFF759FD074629
:1009700088462A46334610461946FFF751FD05467C
:100980000E466410002CEAD1DDE90001B9F1000F38
:100990005A46534606DAFFF7B5FD3A464346FFF797
:1009A000B1FD05E0FFF73CFD3A464346FFF738FD51
:1009B000029A0AB181F00041039AC2E90001B3E74B
:1009C0002DE9FF4F1F468DB0D7E901464FF0FF38A4
:1009D0002E2045464FF000090B90B9696D1C0E980A
:1009E0008847396A824688470028F6D1BAF1FF3F26
:1009F0000AD024F4D064002E11DDBAF12B0F08D0F8
:100A0000BAF12D0F0BD102E0404611B08DE744F44E
:100A10008064B9696D1C0E9888478246761E6946C7
:100A2000600501D52D2000E02B208DF8000001F19C
:100A3000010B0DF1200809E0B9696D1C0E9888477B
:100A400082460F9844F40074761E0560002E02DD85
:100A5000BAF1300FF0D00B998A453ED144F08004B2
:100A600006E00F99681CA9F1010944F400740860BC
:100A7000B9696D1C761E0E98884782463028F0D0E2
:100A80002BE00B998A4505D1200603D444F080045D
:100A9000761E18E0504604F0E7FC08B30DF1130190
:100AA000761E44F400748B4508D2AAF130000BF88E
:100AB000010B200607D5A9F1010003E0200602D4AE
:100AC00009F101008146A00502D50F99681C086054
:100AD000B9696D1C0E9888478246002ED1DC53E020
:100AE000002E51DDBAF1650F02D0BAF1450F4BD19E
:100AF000A00549D5B9696D1C24F44074761E0E9882
:100B000088478246002E0CDD2B2804D0BAF12D0F29
:100B100007D144F48074B9696D1C0E9888478246E9
:100B2000761EE00501D52D2100E02B2108F8011BE0
:100B3000CDF82C8021E00DF12901761E44F40074DB
:100B400088450CD2AAF1300010F0FF0088F80000B0
:100B500002D10B99884509D908F1010806E0E005A2
:100B600001D5244801E042F20F708146B9696D1C3D
:100B70000E98884782460F980560002E04DD504687
:100B800004F072FC0028D6D1F9690E988847FF203E
:100B90008BF8000088F800000020069007904B4674
:100BA0006A4608A906A8FFF777FEA00502D46FF0F1
:100BB00001002AE714F0240F0AD0E00714D1DDE980
:100BC00006123868031D3B600068C0E900120BE0A4
:100BD000DDE90601FFF718FD0146E00704D138689A
:100BE000021D3A600068016028460EE700001440CC
:100BF0000000F03FF1D8FFFF426842B1016811F8F0
:100C0000013B23B1521EC0E9001218467047012172
:100C1000C160881E704742685AB1C368016843B911
:100C200083688B4205D0491E521CC0E90012002087
:100C300070474FF0FF3070472DE9F04D00231A4602
:100C40001B1A8A4103DB00200146BDE8F08DC1F389
:100C50000A52C1F3130141F480154FF0000BD10784
:100C600002D100186D41521E0027044640F2FF11C8
:100C7000384601EB620A3E468046024600204FF4A9
:100C80008011FFF7ECFCC2197141BB1846EB010063
:100C9000B4EB030C75EB000C04D3E41A65EB000510
:100CA00017460E46241908F101006D41804634288C
:100CB000E3DDF91946EB0600091BA84103D24FF00A
:100CC000FF32134601E0002213461BEB070046EB00
:100CD0000A51BDE8F04DFFF76ABD00007F2801D939
:100CE000002208E0064A02EB5002C007127800D149
:100CF000120902F00F0201209040084070470000E6
:100D0000F09800080EB540F2334202920022CDE97D
:100D100000221346FFF75AFD03B000BD70B58C18D2
:100D200010F8015B15F0070301D110F8013B2A11FF
:100D300006D110F8012B03E010F8016B01F8016BEC
:100D40005B1EF9D12B0705D40023521E0DD401F8E8
:100D5000013BFAE710F8013BCB1A921C03E013F8B1
:100D6000015B01F8015B521EF9D5A142D8D30020E6
:100D700070BD000010B52DED028B65480088B0F500
:100D8000004F79D163480078412838D161484078D4
:100D900050280ED15F48801C04F07EFAB0EE408AE5
:100DA000F0EE608A51EC180BFFF72EFC5A490860F0
:100DB0009FE05848407849280ED15648801C04F0DE
:100DC0006BFAB0EE408AF0EE608A51EC180BFFF738
:100DD0001BFC514948608CE04E48407844280DD1B6
:100DE0004C48801C04F058FAB0EE408AF0EE608A5D
:100DF00051EC180BFFF708FC4749886079E045483B
:100E00000078532839D14348407850280ED14148C2
:100E1000801C04F041FAB0EE408AF0EE608A51EC9A
:100E2000180BFFF7F1FB3D49086062E03948407854
:100E300049280ED13748801C04F02EFAB0EE408AC3
:100E4000F0EE608A51EC180BFFF7DEFB3349486087
:100E50004FE03048407844284BD12E48801C04F0A5
:100E60001BFAB0EE408AF0EE608A51EC180BFFF7E7
:100E7000CBFB2A4988603CE046E0264800784D28B4
:100E800037D12448807850280ED12248C01C04F065
:100E900003FAB0EE408AF0EE608A51EC180BFFF7CF
:100EA000B3FB1F49086024E01A48807849280ED116
:100EB0001848C01C04F0F0F9B0EE408AF0EE608AE9
:100EC00051EC180BFFF7A0FB1549486011E01148E1
:100ED000807844280DD10F48C01C04F0DDF9B0EE35
:100EE000408AF0EE608A51EC180BFFF78DFB0C493D
:100EF0008860002003E00021064A1154401C32287B
:100F0000F9DB002002490880BDEC028B10BD000017
:100F10000000002008030020A8000020100400208A
:100F2000B400002070B504460D4640F6FF732A4613
:100F30002146024802F02CF870BD0000D0030020CA
:100F40007FB50024AA222146641C5748425405223A
:100F50002146641C4254AF222146641C42540322A1
:100F60002146641C425414222146641C42549DF8BC
:100F700001202146641C42549DF800202146641C37
:100F800042549DF805202046611CCCB246490A54C3
:100F90009DF804202046611CCCB243490A549DF8B8
:100FA00009202046611CCCB23F490A549DF8082014
:100FB0002046611CCCB23C490A549DF80D202046C5
:100FC000611CCCB238490A549DF80C202046611CA3
:100FD000CCB235490A549DF821202046611CCCB280
:100FE00031490A549DF820202046611CCCB22E497C
:100FF0000A549DF825202046611CCCB22A490A5487
:101000009DF824202046611CCCB227490A549DF843
:1010100029202046611CCCB223490A549DF828207F
:101020002046611CCCB220490A549DF82D20204650
:10103000611CCCB21C490A549DF82C202046611C2E
:10104000CCB219490A549DF831202046611CCCB21B
:1010500015490A549DF830202146601CC4B212483C
:1010600042549DF835202046611CCCB20E490A54EA
:101070009DF834202046611CCCB20B490A5400254F
:10108000002005E00849095C2944CDB2411CC8B2E2
:10109000A042F7DB2046611CCCB203490D54214627
:1010A0000148FFF73FFF7FBD2D0400202DE9F041EF
:1010B0002DED048B82B0B0EE408AF0EE608AB0EE87
:1010C000419A05460E46174600240095AA2221465D
:1010D000641C4C48425405222146641C4254AF22F1
:1010E0002146641C425401222146641C42540C22B5
:1010F0002146641C42549FED440A28EE000ABDEECE
:10110000C00A10EE100A00B201909DF80520214699
:10111000641C3C4842549DF804202146641C4254FF
:101120009FED390A28EE800ABDEEC00A10EE100AC3
:1011300000B201909DF805202046611CCCB23149D7
:101140000A549DF804202046611CCCB22D490A5453
:101150009FED2D0A29EE000ABDEEC00A10EE100A1E
:1011600000B201909DF805202146601CC4B22548BC
:1011700042549DF804202046611CCCB221490A54F7
:101180009DF803202046611CCCB21E490A549DF8EC
:1011900002202046611CCCB21A490A549DF8012055
:1011A0002046611CCCB217490A549DF80020204605
:1011B000611CCCB213490A542046611CCCB21149BF
:1011C0000E542046611CCCB20E490F544FF000085B
:1011D000002006E00B49095C414401F0FF08411C76
:1011E000C8B2A042F6DB2046611CCCB2054901F82A
:1011F000008021460348FFF795FE02B0BDEC048B4A
:10120000BDE8F0812D0400200000C842374890ED71
:10121000000A3748D0ED000A30EE600ADFED350AEB
:10122000B4EEE00AF1EE10FA0DD390ED000A2F486B
:10123000D0ED000A30EE600ADFED2E0AB4EEE00ACF
:10124000F1EE10FA05D2294890ED000A284880ED09
:10125000000A274890ED000ADFED270A20EE200A59
:101260002648D0ED000A9FED241A00EEC10AF1EEE7
:10127000040A80EE201A9FED220A21EE000A21487E
:10128000D0ED000A9FED201A01EE200A1F4880EDE4
:10129000000A90ED000A1B48D0ED000A30EE600A0B
:1012A000DFED1B0A80EE201A9FED150A21EE000AE1
:1012B0001848D0ED000A9FED141A01EE200A1648D6
:1012C00080ED000A0A4890ED000A0C4880ED000A03
:1012D0000E4890ED000A0B4880ED000A0E4890ED94
:1012E000000A0C4880ED000A7047000094000020BE
:1012F000D00000206F12833A00007A44D40000200E
:101300003333333FC40000209A99993EC000002037
:10131000CDCC4C3DCC000020C80000200B4890ED07
:10132000020A0B48D0ED000A60EE200AB2EE041A61
:1013300080EE810A0548D0ED000A064890ED001ABB
:1013400001EE200A044880ED000A7047A800002042
:10135000C0000020D0000020D800002000BFFEE721
:10136000704772B600BFFEE72DE9F0410025002668
:10137000002700201749088017490880174908806E
:101380003224804612E0154A1349124802F018F937
:1013900010480088284405B20F480088304406B23F
:1013A0000E480088384407B208F10108A045EADB7E
:1013B00095FBF4F000B20A49088096FBF4F000B205
:1013C0000849088097FBF4F000B207490880BDE89F
:1013D000F08100006C0000206E00002070000020F2
:1013E00054000020560000205800002070B504462C
:1013F00000F000F906462546681C10B10448007844
:10140000054400BF00F0F6F8801BA842FAD370BD77
:101410002C000020F8B503460A46002500240020D1
:101420000021CDE0012606FA01F5166806EA05045A
:10143000AC4273D15668012E08D05668022E05D0F2
:101440005668112E02D05668122E13D198684F009C
:101450000326BE40B0434F00D668BE40304398607C
:10146000586801268E40B0431679C6F300168E40A8
:1014700030435860D8684F000326BE40B0434F0049
:101480009668BE403043D8605668022E02D0566837
:10149000122E13D1CF0803F1200656F827004E076D
:1014A000F70E0F26BE40B0434F07FF0E1669BE4031
:1014B0003043CF0803F1200646F8270018684F0094
:1014C0000326BE40B043167906F003064F00BE4027
:1014D00030431860566806F08056B6F1805F6ED1D2
:1014E00000BF00260096384E366846F48046364FD8
:1014F0003E603E46366806F48046009600BF00BF58
:10150000324E8F0856F827008E07370F0F26BE4041
:10151000B0432F4EB34202D1002615E04FE02D4ECE
:10152000B34201D101260FE02B4EB34201D1022676
:101530000AE02A4EB34201D1032605E0284EB34209
:1015400001D1042600E007268F073F0FBE4030433D
:101550001E4E8F0846F82700224E3068A04356687A
:1015600006F48036B6F5803F00D120431D4E306032
:10157000361D3068A043566806F40036B6F5003FC5
:1015800000D12043174E361D3060361D3068A04311
:10159000566806F48016B6F5801F00D12043114E20
:1015A00008363060361D3068A043566806F40016D1
:1015B000B6F5001F00D120430A4E0C363060491C9E
:1015C0001029FFF42FAFF8BD44380240083801401D
:1015D000000002400004024000080240000C0240EB
:1015E00000100240003C01400AB1816101E00B049F
:1015F00083617047014800687047000024000020A4
:1016000070B504460CB9012070BD94F83D0028B9AE
:10161000002084F83C00204600F006FB242084F8DB
:101620003D002068006820F0010021680860206803
:10163000006840F40040216808602068006820F4D9
:1016400000402168086000F015FD05465C496068AF
:10165000884206D85B48854201D2012007E000207D
:1016600005E05948854201D2012000E00020012810
:1016700000D1C9E75548B5FBF0F62068406820F076
:101680003F003043216848604D496068884201D876
:10169000701C07E04FF4967070434FF47A71B0FB02
:1016A000F1F0401C2168096A21F03F0108432168DC
:1016B000086243496068884214D8681E616849001E
:1016C000B0FBF1F0401CC0F30B00042801D2042051
:1016D0003DE0681E61684900B0FBF1F0401CC0F3BA
:1016E0000B0034E0A06838B9681E616801EB410165
:1016F000B0FBF1F0401C0AE0681E616801EBC1021A
:1017000002EB0111B0FBF1F0401C40F48040C0F34B
:101710000B0008B901201AE0A06848B9681E61688A
:1017200001EB4101B0FBF1F0401CC0F30B000CE0F9
:10173000681E616801EBC10202EB0111B0FBF1F020
:10174000401CC0F30B0040F4804040F4004021688E
:10175000C9694CF6FF72914308432168C861D4E916
:10176000070108432168096821F0C0010843216886
:101770000860D4E9031008432168896848F2FF3201
:101780009143084321688860D4E905010843216832
:10179000C96821F0FF0108432168C860206800681B
:1017A00040F001002168086000202064202084F8B7
:1017B0003D000020206384F83E0000BF24E70000C5
:1017C000A086010080841E0000093D0040420F00F9
:1017D0002DE9FC5F04460F4690469946DDE90CABC7
:1017E0000E9EFFF707FF054694F83D00202870D1B4
:1017F00019230122B0492046009501F0A5FD10B142
:101800000220BDE8FC9F00BF94F83C00012801D1F4
:101810000220F6E7012084F83C0000BF2068006841
:1018200000F0010028B92068006840F0010021683C
:1018300008602068006820F40060216808602220A9
:1018400084F83D00402084F83E0000202064C4F865
:1018500024A0A4F82AB0608D20859848E0624B4609
:10186000424639462046CDE9006501F01FFC08B12B
:101870000120C6E7208D88B900BF002001902068B4
:101880004069019020688069019000BF00BF206816
:10189000006840F400702168086040E0208D012855
:1018A00018D12068006820F480602168086000BFBB
:1018B00000200190206840690190206880690190B3
:1018C00000BF00BF2068006840F400702168086015
:1018D00025E0EFE0208D022816D12068006820F472
:1018E0008060216808602068006840F4006021681A
:1018F000086000BF002001902068406901902068C6
:101900008069019000BF0AE000BF002001902068BC
:101910004069019020688069019000BF00BFBAE073
:10192000208D03287ED8208D012815D12A463146E6
:10193000204601F0AEFD08B1012062E72068006991
:10194000616A0870606A401C6062208D401E2085BC
:10195000608D401E60859EE0208D02282AD133468E
:10196000002257492046009501F0EEFC08B1012005
:1019700047E72068006840F400702168086020682C
:101980000069616A0870606A401C6062208D401EB8
:101990002085608D401E608520680069616A08703E
:1019A000606A401C6062208D401E2085608D401E54
:1019B000608570E03346002241492046009501F0E1
:1019C000C3FC08B101201CE72068006820F4806097
:1019D0002168086020680069616A0870606A401CBC
:1019E0006062208D401E2085608D401E60853346DC
:1019F000002233492046009501F0A6FC08B10120E1
:101A0000FFE62068006840F40070216808602068E4
:101A10000069616A0870606A401C6062208D401E27
:101A2000208500E010E0608D401E60852068006920
:101A3000616A0870606A401C6062208D401E2085CB
:101A4000608D401E608526E02A463146204601F022
:101A500020FD08B10120D4E620680069616A0870A1
:101A6000606A401C6062208D401E2085608D401E93
:101A7000608520684069C0F3800060B1206800691B
:101A8000616A0870606A401C6062208D401E20857B
:101A9000608D401E6085208D00287FF441AF20209E
:101AA00084F83D00002084F83E0000BF84F83C002C
:101AB00000BFA6E60220A4E6020010000000FFFF1F
:101AC000040001002DE9FC5F04460F46904699464C
:101AD000DDE90CAB0E9EFFF78DFD054694F83D0049
:101AE00020287DD1192301224D492046009501F07F
:101AF0002BFC10B10220BDE8FC9F00BF94F83C0015
:101B0000012801D10220F6E7012084F83C0000BF43
:101B10002068006800F0010028B92068006840F0E3
:101B20000100216808602068006820F400602168D6
:101B30000860212084F83D00402084F83E00002009
:101B40002064C4F824A0A4F82AB0608D208535480C
:101B5000E0624B46424639462046CDE9006501F039
:101B600055FB08B10120C6E731E02A463146204640
:101B700001F0CFFC50B1206C042805D1206800682A
:101B800040F40070216808600120B4E7606A0078C2
:101B900021680861606A401C6062208D401E2085BB
:101BA000608D401E608520684069C0F3800070B180
:101BB000208D60B1606A007821680861606A401C0D
:101BC0006062208D401E2085608D401E6085208DC6
:101BD0000028CAD12A463146204601F087FB00E0A2
:101BE0001CE050B1206C042805D12068006840F446
:101BF00000702168086001207DE72068006840F4DB
:101C0000007021680860202084F83D00002084F8DE
:101C10003E0000BF84F83C0000BF6CE702206AE78A
:101C2000020010000000FFFF10B586B0044614212A
:101C300001A8FEF736FB3C492068884230D100BF3E
:101C4000002000903948006840F0020037490860E1
:101C50000846006800F00200009000BF00BF4FF48B
:101C60004070019012200290012003900320049004
:101C70000420059001A92E48FFF7CCFB00BF0020EF
:101C800000902A481030006840F4001027491031B5
:101C900008600846006800F40010009000BF41E0B2
:101CA0002449206888423DD100BF002000901F4891
:101CB000006840F002001D4908600846006800F016
:101CC0000200009000BF00BF081501901220029092
:101CD00001200390032004900420059001A91448DA
:101CE000FFF798FB0820019012200290012003903A
:101CF000032004900920059001A90D48FFF78AFBF5
:101D000000BF0020009009481030006840F48000B7
:101D10000649103108600846006800F48000009011
:101D200000BF00BF06B010BD005400403038024074
:101D30000004024000580040034800680349097845
:101D40000844014908607047240000202C0000204E
:101D500010B50D48006840F400700B490860084653
:101D6000006840F4806008600846006840F48070B5
:101D70000860032000F0A2F8002000F007F800F04F
:101D80002BF8002010BD0000003C024070B5044656
:101D90000E4800784FF47A71B1FBF0F00C490968F5
:101DA000B1FBF0F5284600F021FC08B1012070BD20
:101DB000102C07D200222146501E00F041F80548A1
:101DC000046001E00120F2E70020F0E72C00002091
:101DD000300000202800002008B500BF002000903F
:101DE0000E48006840F480400C49086008460068CE
:101DF00000F48040009000BF00BF00BF00200090B2
:101E0000081F006840F08050091F086008460068FD
:101E100000F08050009000BF00BF08BD4438024071
:101E200001460846002809DB00F01F0301229A4002
:101E300043099B0003F1E023C3F8002100BF704772
:101E40002DE9F05F80460D461646002702F0F4FDAE
:101E5000074639462A46334601F00700C0F1070A13
:101E6000BAF1040F02D94FF0040A01E0C0F1070AE9
:101E7000D14600F1040ABAF1070F02D24FF0000A6E
:101E800001E0A0F1030AD4464FF0010A0AFA09FA68
:101E9000AAF1010A0AEA020A0AFA0CFA4FF0010B47
:101EA0000BFA0CFBABF1010B0BEA030B4AEA0B0438
:101EB0002146404602F0C8FDBDE8F09F00BF00F09B
:101EC0000702064B19684FF6FF031940044B0B43FA
:101ED00043EA0221014B196000BF70470CED00E09E
:101EE0000000FA0570B504460D460CB9012070BD1E
:101EF0005848006800F00F00A84209D255490D70FB
:101F00000846006800F00F00A84201D00120EEE76B
:101F1000207800F0020002281DD1207800F0040093
:101F2000042805D14C48006840F4E0504A49086054
:101F3000207800F00800082805D14748006840F4E0
:101F40006040454908604448006820F0F000A168FE
:101F5000084341490860207800F00100A8B3606898
:101F6000012807D13C4808380068C0F34040B8B9A0
:101F70000120BCE76068022802D06068032807D10E
:101F8000354808380068C0F3406048B90120AEE722
:101F9000314808380068C0F3400008B90120A6E7BE
:101FA0002D48006820F00300616808432A49086052
:101FB000FFF720FB064609E0FFF71CFB801B41F200
:101FC0008831884202D9032091E707E0224800685F
:101FD00000F00C006168B0EB810FEDD11D48006886
:101FE00000F00F00A84209D91A490D700846006890
:101FF00000F00F00A84201D0012078E7207800F01F
:102000000400042807D11448006820F4E050E16877
:10201000084311490860207800F00800082808D11A
:102020000D48006820F46040216940EAC1000A4977
:10203000086000F03FF808490968C1F30311074A36
:10204000515CC8400649086006480068FFF79EFEDC
:1020500000204CE7003C0240083802408283000820
:102060003000002028000020014800687047000070
:102070003000002000B5FFF7F7FF04490968C1F3FD
:102080008221034A515CC84000BD0000083802406C
:102090009283000800B5FFF7E7FF04490968C1F320
:1020A0004231034A515CC84000BD0000083802407C
:1020B000928300082DE9F047002400250026A14660
:1020C0002548006800F00C0020B1042805D008283D
:1020D0003AD105E0DFF8849039E0DFF8849036E00B
:1020E0001D48001F006800F03F041B48001F0068E7
:1020F00000F4800078B11A481749091F0968C1F334
:102100008811A0FB01700146224600233846FEF7E5
:102110005FF805460EE011480F49091F0968C1F331
:102120008811A0FB01700146224600233846FEF7C5
:102130004FF805460848001F0068C0F30140401CE6
:102140004600B5FBF6F902E0DFF8109000BF00BFD3
:102150004846BDE8F0870000083802400024F4003B
:1021600040787D01F8B504460CB90120F8BD20780F
:1021700000F00100002874D0F948006800F00C005D
:1021800004280DD0F648006800F00C00082813D190
:10219000F348001F006800F48000B0F5800F0BD1F9
:1021A000EF4808380068C0F34040002859D0606804
:1021B000002856D10120D9E700BF6068B0F5803F04
:1021C00008D1E7480838006840F48030E44908390D
:1021D00008601EE06068B0F5A02F0DD1E048083817
:1021E000006840F48020DE4908390860084600682D
:1021F00040F4803008600CE0D9480838006820F4CA
:102200008030D749083908600846006820F48020EB
:10221000086000BF606890B1FFF7ECF9054606E082
:10222000FFF7E8F9401B642801D903209EE7CC485A
:1022300008380068C0F340400028F1D011E0FFF7F3
:10224000D9F9054606E0FFF7D5F9401B642801D906
:1022500003208BE7C24808380068C0F340400028DC
:10226000F1D1207800F0020002285FD1BC4800685C
:1022700000F00C0058B1BA48006800F00C000828C3
:102280001CD1B748001F006800F48000B0B9B44802
:1022900008380068C0F3400020B1E068012801D090
:1022A000012063E7AE480838006820F0F800216993
:1022B00040EAC100AA490839086037E0E06800B385
:1022C0000120A8490860FFF795F9054606E0FFF7E9
:1022D00091F9401B022801D9032047E7A04808389C
:1022E0000068C0F340000028F1D09D48083800681D
:1022F00020F0F800216940EAC100994908390860D6
:1023000014E0002097490860FFF774F9054606E0DD
:10231000FFF770F9401B022801D9032026E79048F7
:1023200008380068C0F340000028F1D1207800F0A0
:10233000080008282CD16069A8B101208A490860EA
:10234000FFF758F9054606E0FFF754F9401B02284D
:1023500001D903200AE782486C300068C0F34000CE
:102360000028F1D014E000207F490860FFF742F90F
:10237000054606E0FFF73EF9401B022801D903207D
:10238000F4E677486C300068C0F340000028F1D1D3
:10239000207800F00400042870D1002770483830FD
:1023A000006800F0805090B900BF002000906C4899
:1023B0003830006840F0805069493831086008467C
:1023C000006800F08050009000BF00BF0127674800
:1023D000006800F48070B0B96448006840F4807010
:1023E00062490860FFF706F9054606E0FFF702F9C3
:1023F000401B022801D90320B8E65C48006800F4BD
:1024000080700028F2D000BFA068012808D154488D
:102410006830006840F001005149683108601DE0F3
:10242000A06805280DD14E486830006840F00400CF
:102430004B49683108600846006840F001000860B8
:102440000CE047486830006820F0010044496831DA
:1024500008600846006820F00400086000BFA0681B
:10246000A8B1FFF7C7F8054609E0FFF7C3F8401B1E
:1024700041F28831884202D9032077E626E03848C5
:1024800068300068C0F340000028EED013E0FFF78A
:10249000B1F8054608E0FFF7ADF8401B41F288317E
:1024A000884201D9032061E62D4868300068C0F3F6
:1024B00040000028EFD1012F07D1294838300068AB
:1024C00020F0805026493831086000BFA0690028FC
:1024D00045D02348006800F00C0008285DD0A069B2
:1024E000022845D100201F490866FFF783F80546FA
:1024F00006E0FFF77FF8401B022801D9032035E6EC
:10250000174808380068C0F340600028F1D1D4E9CA
:1025100007010843616A40EA81110122A06AC2EB07
:10252000500041EA00412C20005D41EA00600C4966
:10253000091F086001200B490866FFF75BF8054694
:1025400006E0FFF757F8401B022801D903200DE6EB
:10255000034808380068C0F340600028F1D03FE02D
:102560000838024000004742800E47420070004099
:1025700000201C490866FFF73DF8054606E0FFF716
:1025800039F8401B022801D90320EFE516480068FE
:10259000C0F340600028F2D122E0A069012800D1F8
:1025A000E4E51148001D066806F48001E0698142F7
:1025B00014D106F03F01206A81420FD147F6C07066
:1025C0003040616A884209D106F44031A06A8142F4
:1025D00004D106F07061E06A814201D00120C5E5B6
:1025E0000020C3E5000047420038024070B50446B1
:1025F0002546681EB0F1807F01D301200FE0681EE0
:102600004FF0E02148610F214FF0FF3002F01CFA3B
:1026100000204FF0E021886107200861002070BD94
:102620007047704730B502460B4600BF92F83C0039
:10263000012801D1022030BD012082F83C0000BFFA
:10264000022082F83D00106844681068816824F018
:1026500070041868044310684460144D1068A84260
:1026600013D01068B0F1804F0FD0114D1068A84200
:102670000BD0104D1068A84207D00F4D1068A8422B
:1026800003D00E4D1068A84205D121F08001586892
:10269000014310688160012082F83D0000BF0020E6
:1026A00082F83C0000BF00BFC5E700000000014009
:1026B0000004004000080040000C004000400140C1
:1026C00010B504460CB9012010BD94F83D0028B99E
:1026D000002084F83C00204600F00CF8022084F82A
:1026E0003D00211D206801F0DBFD012084F83D0044
:1026F0000020E9E738B5044619492068884218D116
:1027000000BF002000901748006840F00100154904
:1027100008600846006800F00100009000BF00BF9C
:10272000002201211920FFF78BFB1920FFF778FB0E
:1027300015E02068B0F1804F11D100BF002000905B
:102740000848001F006840F001000649091F0860A2
:102750000846006800F00100009000BF00BF38BDCF
:10276000000001404438024001460868C06840F05B
:1027700001000B68D8600868806800F00702062A2C
:1027800005D00868006840F001000B681860002060
:1027900070472DE9F04104460D4600BF94F83C0017
:1027A000012802D10220BDE8F081012084F83C001C
:1027B00000BF022084F83D002068866826F0770676
:1027C00026F47F46206886602868502833D00CDCC9
:1027D000202850D004DC00284BD0102851D149E0EB
:1027E000302849D040284CD139E060282DD07028BD
:1027F00007D0B0F5805F03D0B0F5005F41D10DE0A8
:1028000040E0D5E902136A68206801F0ACFD206859
:10281000866846F077062068866033E0D5E90213C3
:102820006A68206801F09FFD2068806840F480405D
:102830002168886026E0EA686968206801F064FE23
:102840005021206801F09AFD1CE0EA686968206860
:1028500001F06DFE6021206801F090FD12E0EA6851
:102860006968206801F050FE4021206801F086FD73
:1028700008E000BF00BF00BF2968206801F07EFDAE
:1028800000E000BF00BF012084F83D0000BF002031
:1028900084F83C0000BF00BF85E72DE9F041044605
:1028A0000D4614B90120BDE8F08194F83D0028B927
:1028B000002084F83C00204600F046F8022084F80E
:1028C0003D002068806844F20701884321688860E1
:1028D000211D206801F0E4FC2068D0F80880206801
:1028E00086692068076A286840EA080840F20330D1
:1028F0008643A969A86840EA0120064340F60C40D7
:1029000086434FF2F0008643E969E86840EA012017
:10291000064328690001296A40EA0130064327F08E
:10292000220727F088076969686840EA01100743B1
:102930002068C0F80880206886612068076201204E
:1029400084F83D000020AEE710B586B0044614219F
:1029500001A8FDF7A6FC38492068884237D100BF9E
:10296000002000903548006840F0020033490860BC
:102970000846006800F00200009000BF00BF00BFE2
:10298000002000902D481038006840F001002B49CD
:10299000103908600846006800F00100009000BF90
:1029A00000BFC020019002200290039000200490FC
:1029B0000220059001A92248FEF72CFD00220221E9
:1029C0001D20FFF73DFA1D20FFF72AFA32E01D49CE
:1029D000206888422ED100BF002000901748006870
:1029E00040F00400154908600846006800F0040043
:1029F000009000BF00BF00BF002000900F481038BB
:102A0000006840F002000D4910390860084600686F
:102A100000F00200009000BF00BFC0200190022023
:102A200002900390002004900220059001A906481E
:102A3000FEF7F0FC06B010BD000400404038024034
:102A400000000240000800400004024030B5044687
:102A50000D4615B1042D0CD105E00122002120689E
:102A600001F070FC10E001220421206801F06AFCF2
:102A70000AE001220021206801F064FC0122042107
:102A8000206801F05FFC00BF00BF2068006840F0D4
:102A9000010021680860002030BD704710B5044671
:102AA00020680069C0F34000D8B12068C068C0F356
:102AB0004000B0B16FF0020021680861012020776A
:102AC0002068806900F0030018B12046FFF7E5FF99
:102AD00005E0204600F0DCF8204600F079F90020FF
:102AE000207720680069C0F38000D8B12068C068F2
:102AF000C0F38000B0B16FF00400216808610220CB
:102B000020772068806900F4407018B12046FFF7F4
:102B1000C4FF05E0204600F0BBF8204600F058F95D
:102B20000020207720680069C0F3C000D8B1206879
:102B3000C068C0F3C000B0B16FF008002168086140
:102B4000042020772068C06900F0030018B12046F7
:102B5000FFF7A3FF05E0204600F09AF8204600F0BA
:102B600037F90020207720680069C0F30010D8B141
:102B70002068C068C0F30010B0B16FF01000216889
:102B80000861082020772068C06900F4407018B1FF
:102B90002046FFF782FF05E0204600F079F8204646
:102BA00000F016F9002020772068006900F001008D
:102BB00058B12068C06800F0010030B16FF001002A
:102BC00021680861204600F02BF920680069C0F3F5
:102BD000C01058B12068C068C0F3C01030B16FF0A9
:102BE0008000216808612046FFF71AFD206800690F
:102BF000C0F3801058B12068C068C0F3801030B1B5
:102C00006FF0400021680861204600F00AF9206852
:102C10000069C0F3401058B12068C068C0F340108C
:102C200030B16FF02000216808612046FFF7F9FC01
:102C300010BD000010B586B00446142101A8FDF7B0
:102C400030FB2068B0F1804F1CD100BF0020009005
:102C50000D48006840F001000B4908600846006814
:102C600000F00100009000BF00BF0F200190022083
:102C700002900020039004900120059001A90348D0
:102C8000FEF7C8FB06B010BD30380240000002401D
:102C9000704770B504460D46164600BF94F83C00D8
:102CA000012801D1022070BD012084F83C0000BF42
:102CB000022084F83D0036B1042E1BD0082E31D0FE
:102CC0000C2E5ED145E02946206801F061FB2068AA
:102CD000806940F00800216888612068806920F0E0
:102CE0000400216888612068806929690843216897
:102CF000886147E02946206801F07AFB20688069F6
:102D000040F40060216888612068806920F4806058
:102D10002168886120688069296940EA012021686A
:102D200088612FE02946206801F096FB2068C06981
:102D300040F008002168C8612068C06920F00400E4
:102D40002168C8612068C069296908432168C86191
:102D500018E02946206801F0B3FB2068C06940F400
:102D600000602168C8612068C06920F48060216823
:102D7000C8612068C069296940EA01202168C861EA
:102D800000E000BF00BF012084F83D0000BF00202C
:102D900084F83C0000BF00BF85E710B504460CB9BD
:102DA000012010BD94F83D0028B9002084F83C00B3
:102DB000204600F00CF8022084F83D00211D206818
:102DC00001F06EFA012084F83D000020E9E7704729
:102DD0007047000070B504460E4601223146206857
:102DE00001F0B0FA0D492068884201D1012000E0CD
:102DF000002028B12068406C40F4004021684864FD
:102E00002068806800F00705062D05D0206800685E
:102E100040F0010021680860002070BD0000014002
:102E20007047704710B504460CB9012010BDA06969
:102E300000B100E000BF94F8390028B9002084F800
:102E40003800204600F028F8242084F83900206853
:102E5000C06820F400502168C860204601F07CFB67
:102E60002068006920F4904021680861206840696A
:102E700020F02A00216848612068C06840F40050B2
:102E80002168C8600020E063202084F8390084F8BD
:102E90003A000020CAE7000010B586B004461421AD
:102EA00001A8FDF7FEF91B492068884230D100BF18
:102EB000002000901848006840F010001649086093
:102EC0000846006800F01000009000BF00BF00BF7F
:102ED0000020009010481438006840F001000E49AE
:102EE000143908600846006800F00100009000BF37
:102EF00000BF4FF4C06001900220029000200390B8
:102F0000032004900720059001A90448FEF782FAE7
:102F100006B010BD001001404438024000000240DD
:102F200010B5034693F83A0020282FD101B10AB911
:102F3000012010BD00BF93F83800012801D1022004
:102F4000F7E7012083F8380000BF99629A85DA8597
:102F50000020D863222083F83A0000BF002083F8C5
:102F6000380000BF1868C06840F480701C68E060DA
:102F70001868406940F001001C6860611868C0680A
:102F800040F020001C68E0600020D2E70220D0E77B
:102F90002DE9F84304460D4616461F464FF000093A
:102FA00094F8390020285DD105B116B90120BDE89B
:102FB000F88300BF94F83800012801D10220F6E719
:102FC000012084F8380000BF0020E063212084F84D
:102FD0003900FEF70FFB8146A684E68400BF00207F
:102FE00084F8380000BF2BE0E08C401EE084A0682D
:102FF000B0F5805F16D14B46002280212046009715
:1030000001F09EFC08B10320D1E7A846B8F8000003
:10301000C0F3080021684860206908B9AD1C0FE0C2
:103020006D1C0DE04B46002280212046009701F0E8
:1030300087FC08B10320BAE715F8010B2168486046
:10304000E08C0028D0D14B4600224021204600973A
:1030500001F076FC08B10320A9E7202084F83900AC
:103060000020A4E70220A2E700BFFEE701460868AF
:103070004069C0F38020B0B16FF480600A6850618D
:1030800000200863202081F83D00002081F83E00E8
:10309000086C40F00400086400BF002081F83C0088
:1030A00000BF012070470020FCE700002DE9F84335
:1030B00004460F4615469946DDE9088620680068F3
:1030C00040F48060216808602068006840F48070E7
:1030D00021680860434600224FF001112046009607
:1030E00000F032F960B12068006800F48070B0F53B
:1030F000807F02D14FF4007020640320BDE8F88384
:1031000007F0FE0021680861334642463E492046EA
:1031100000F05DF908B10120F0E700BF0020009049
:1031200020684069009020688069009000BF00BF5F
:1031300032464146204600F0ECF950B1206C04289C
:1031400005D12068006840F4007021680860012003
:10315000D4E7B9F1010F03D1E8B22168086117E0A3
:10316000C5F307202168086132464146204600F039
:10317000D0F950B1206C042805D12068006840F4D3
:103180000070216808600120B8E7E8B22168086192
:1031900032464146204600F0BCF950B1206C04286C
:1031A00005D12068006840F40070216808600120A3
:1031B000A4E72068006840F48070216808604346F6
:1031C00000224FF001112046009600F0BDF858B1E2
:1031D0002068006800F48070B0F5807F02D14FF461
:1031E00000702064032089E7F8B240F001002168F4
:1031F0000861334642460449204600F0E8F808B129
:1032000001207BE7002079E7020001002DE9F84367
:103210000446884615469946DDE908672068006837
:1032200040F4807021680860334600224FF001119D
:103230002046009700F088F860B12068006800F42C
:103240008070B0F5807F02D14FF4007020640320BD
:10325000BDE8F88308F0FE00216808613B4632466D
:103260002149204600F0B3F808B10120F0E700BF83
:1032700000200090206840690090206880690090DC
:1032800000BF00BF3A463146204600F042F950B137
:10329000206C042805D12068006840F40070216883
:1032A00008600120D4E7B9F1010F03D1E8B2216829
:1032B000086117E0C5F30720216808613A463146E6
:1032C000204600F026F950B1206C042805D1206872
:1032D000006840F40070216808600120B8E7E8B297
:1032E000216808610020B3E70200010070B50446C0
:1032F0000D46164620E02046FFF7B8FE08B1012033
:1033000070BD681CC0B1FEF775F9801BA84200D8DB
:1033100095B900202063202084F83D00002084F827
:103320003E00206C40F02000206400BF002084F8A4
:103330003C0000BF0120E3E720684069C0F3800043
:103340000028D8D00020DBE72DE9F04104460D46E7
:1033500017461E46DDF818801CE0701CD0B1FEF741
:1033600049F9A0EB0800B04200D89EB900202063C4
:10337000202084F83D00002084F83E00206C40F0BE
:103380002000206400BF002084F83C0000BF012022
:10339000BDE8F081C5F3074001280AD120684069E3
:1033A000A9B20840A9B2884201D101200BE0002057
:1033B00009E020688069A9B20840A9B2884201D119
:1033C000012000E00020B842C7D00020E0E72DE94E
:1033D000F04104460D4616461F463DE02068406910
:1033E000C0F38020E8B12068006840F400702168D4
:1033F00008606FF48060216848610020206320200D
:1034000084F83D00002084F83E00206C40F0040069
:10341000206400BF002084F83C0000BF0120BDE80C
:10342000F081701CC0B1FEF7E5F8C01BB04200D8B7
:1034300096B900202063202084F83D00002084F805
:103440003E00206C40F02000206400BF002084F883
:103450003C0000BF0120E2E7C5F3074001280AD184
:1034600020684069A9B20840A9B2884201D1012070
:103470000BE0002009E020688069A9B20840A9B2E9
:10348000884201D1012000E000200028A6D00020C1
:10349000C5E770B504460D46164632E0206840691F
:1034A000C0F30010A0B16FF0100021684861002047
:1034B0002063202084F83D00002084F83E00206C2A
:1034C000206400BF002084F83C0000BF012070BDD4
:1034D000FEF790F8801BA84200D895B90020206321
:1034E000202084F83D00002084F83E00206C40F04D
:1034F0002000206400BF002084F83C0000BF0120B1
:10350000E5E720684069C0F380100028C6D000209D
:10351000DDE770B504460D46164620E02046FFF76D
:10352000A5FD08B1012070BD681CC0B1FEF762F8AE
:10353000801BA84200D895B900202063202084F881
:103540003D00002084F83E00206C40F02000206404
:1035500000BF002084F83C0000BF0120E3E72068A2
:103560004069C0F3C0100028D8D00020DBE700007D
:10357000FEB504460D4616461F4640F6FF70610034
:1035800001232A46CDE9007602900248FEF720F991
:103590000020FEBDB4010020FEB504460D461646CF
:1035A0001F4640F6FF70610001232A46CDE90076F0
:1035B00002900248FEF786FA0020FEBDB40100200A
:1035C0002DE9FC4104460D4616466B460622432172
:1035D000682000F01DF80746BFB99DF801009DF86E
:1035E000001040EA012000B220809DF803009DF801
:1035F000021040EA012000B228809DF805009DF8E5
:10360000041040EA012000B230803846BDE8FC8159
:10361000FEB504460D4616461F4640F6FF70610093
:1036200001232A46CDE9007602900248FEF7D0F841
:103630000020FEBDB401002000B587B0142102A80F
:10364000FCF72FFE00BF002001902648006840F0E4
:103650000400244908600846006800F00400019056
:1036600000BF00BF00BF002001900846006840F086
:10367000800008600846006800F08000019000BFEC
:1036800000BF00BF002001900846006840F0010024
:1036900008600846006800F00100019000BF00BF0C
:1036A00000BF002001900846006840F0020008605A
:1036B0000846006800F00200019000BF00BF002231
:1036C00030210948FDF790FF30200290012003903F
:1036D00000200490059002A90348FDF79BFE07B067
:1036E00000BD0000303802400000024010B50C4818
:1036F0000C4908600C4848604FF4804109488160DB
:103700000021C1604FF4804101610021416181616C
:10371000C1610162FDF774FF08B1FDF722FE10BD23
:103720000054004060010020801A060010B50C48CB
:103730000C4908600C4848604FF48041094881609A
:103740000021C1604FF4804101610021416181612C
:10375000C1610162FDF754FF08B1FDF702FE10BD23
:1037600000580040B4010020801A060000B587B060
:103770000020039004900590069001900290154857
:10378000154908606320486000211348816040F2B9
:10379000E731C1600021016141618161FEF790FF65
:1037A00008B1FDF7DEFD4FF48050039003A90A48ED
:1037B000FEF7EFFF08B1FDF7D4FD00200190029065
:1037C00001A90548FEF72EFF08B1FDF7CAFD07B0B5
:1037D00000BD0000000001400802002000B58DB0CF
:1037E000002009900A900B900C90079008901C21E3
:1037F0006846FCF756FD4FF080402B4908600120D9
:10380000486000212848816040F2E731C160002112
:1038100001618161FEF754FF08B1FDF7A2FD4FF48D
:103820008050099009A92048FEF7B3FF08B1FDF7C1
:1038300098FD1D48FFF7B1FA08B1FDF792FD002091
:103840000790089007A91848FEF7ECFE08B1FDF7AD
:1038500088FD6020009000200190029004900022DA
:1038600069461148FFF715FA08B1FDF77AFD042201
:1038700069460D48FFF70DFA08B1FDF772FD082201
:1038800069460948FFF705FA08B1FDF76AFD0C2201
:1038900069460548FFF7FDF908B1FDF762FD0248EA
:1038A000FFF7C8F90DB000BD4802002000B58BB08D
:1038B000242102A8FCF7F5FC002000900190184894
:1038C00018490860002048600021164881604FF6C2
:1038D000FF71C1600021016181610320029000201D
:1038E000039001200490002005900690079001208D
:1038F0000890002009900A9002A90A48FEF7CDFF1F
:1039000008B1FDF72EFD00200090019069460548A2
:10391000FEF788FE08B1FDF724FD0BB000BD0000E6
:10392000000400408802002000B58BB0242102A8CA
:10393000FCF7B7FC00200090019018481849086077
:10394000002048600021164881604FF6FF71C16079
:103950000021016181610320029000200390012079
:103960000490002005900690079001200890002008
:1039700009900A9002A90A48FEF78FFF08B1FDF7E7
:10398000F0FC00200090019069460548FEF74AFED1
:1039900008B1FDF7E6FC0BB000BD000000080040D8
:1039A000C802002010B50B480B4908604FF4E13005
:1039B0004860002108488160C16001610C214161BB
:1039C00000218161C161FFF72DFA08B1FDF7C9FC43
:1039D00010BD000000100140D003002000BFFEE732
:1039E00010B5294890ED000A9FED281AC0EE010A93
:1039F000274890ED000A30EE600A264880ED000A64
:103A000090ED000AF3EE0B0AB4EEE00AF1EE10FAC4
:103A100008DD90ED000ADFED1D0A30EE200A80ED92
:103A2000000A11E01B4890ED000AFBEE0B0AB4EE11
:103A3000E00AF1EE10FA07D290ED000ADFED130A6A
:103A400030EE600A80ED000A124890ED000ADFEDCA
:103A5000120AB4EEE00AF1EE10FA03DD9FED0E0A51
:103A600080ED000A0B4890ED000ADFED0C0AB4EE81
:103A7000E00AF1EE10FA03D29FED080A80ED000A89
:103A800000F02CFA10BD0000DC0000200000C8424D
:103A9000D8000020E80000200000FA430000FAC32C
:103AA00010B500210C48FFF795F904210A48FFF7EB
:103AB00091F908210848FFF78DF90C210648FFF716
:103AC00089F9002210210548FDF78EFD00222021F2
:103AD0000248FDF789FD10BD4802002000000240A9
:103AE00000BFFEE770B5002415E004F1B001C8B2D4
:103AF00000F0F0F8002000F0EDF8102000F0EAF8F7
:103B0000002504E0002000F0F9F8681CC5B2802D03
:103B1000F8DB601CC4B2082CE7DB70BD10B5C82010
:103B2000FDF764FC00F044FF10BD70B504460D467F
:103B300005F1B001C8B200F0CDF8102141EA14102F
:103B400000F0C8F804F00F0000F0C4F870BD0000E9
:103B50002DE9F04707460E46904699460025002479
:103B6000A8F12000C5B27F2F02DD0027B01CC6B22D
:103B7000B9F1100F22D131463846FFF7D6FF0024A5
:103B800007E004EB0511174A505C00F0B7F8601C21
:103B9000C4B2082CF5DB701CC1B23846FFF7C5FF74
:103BA000002408E004EB051108310E4A505C00F0D7
:103BB000A5F8601CC4B2082CF4DB11E0314638468D
:103BC000FFF7B3FF002409E005EB4501064A02EBCD
:103BD0004101085D00F092F8601CC4B2062CF3DBD2
:103BE000BDE8F087C28500089A8300082DE9FF5FD1
:103BF0000646174698460E9D4FF0000A0024002FF7
:103C00000EDAAB4605EBDB71491001FB0461C8B26B
:103C10002B462D220199FFF79BFF7F42601CC4B207
:103C200037E0A8EB0400401EC1B20A2004F0D2FA2B
:103C3000B7FBF0F00A21B0FBF1F201FB1209BAF177
:103C4000000F15D1A8F10100A04211DDB9F1000F5C
:103C50000CD1AB4605EBDB71491001FB0461C8B226
:103C60002B4620220199FFF773FF10E04FF0010A65
:103C7000AB4605EBDB71491001FB0461C8B209F1E9
:103C80003001CAB22B460199FFF762FF00BF601CEA
:103C9000C4B24445C5DBBDE8FF9F2DE9F0410446B1
:103CA0000F461546984600260FE0AA5D4346394662
:103CB0002046FFF74DFF04F10800C4B2782C02DD66
:103CC0000024B81CC7B2701CC6B2A85D0028ECD195
:103CD000BDE8F08101B584B04FF48070012104AAE1
:103CE0000B46CDE900210290002278210248FDF721
:103CF000E9FE05B000BD00006001002001B584B000
:103D00004FF48070012104AA0B46CDE900210290F6
:103D1000402278210248FDF7D5FE05B000BD000025
:103D2000600100207047704710B52DED028BB0EE9A
:103D3000408A0446B5EEC08AF1EE10FA0ED2012296
:103D400010211F48FDF750FC002220211C48FDF7E0
:103D50004BFCB1EE480AB0EE408A09E00122202176
:103D60001748FDF741FC002210211548FDF73CFCE7
:103D70003CB9BDEEC80A10EE100A12490968486342
:103D80001AE0042C07D1BDEEC80A10EE100A0D4946
:103D90000968886310E0082C07D1BDEEC80A10EE50
:103DA000100A08490968C86306E0BDEEC80A10EEAB
:103DB000100A044909680864BDEC028B10BD0000BC
:103DC00000000240480200202848D0ED001AB0EE62
:103DD000610A2748D0ED001A70EE611AB0EE610A50
:103DE0002448D0ED001A61EE801AF0EE610A90EDE1
:103DF000012AF2EE042AC2EE221A61EE801AB0EE17
:103E0000611A1D48D0ED001A71EE811AC0ED001A3A
:103E1000D0ED001AFDEEE11A11EE900A00B2B0F5F5
:103E20002F7F04DDDFED151A1348C0ED001A12488C
:103E3000D0ED001AFDEEE11A11EE900A00B210F575
:103E4000617F04DADFED0E1A0B48C0ED001A0D4851
:103E5000D0ED001A0C48C0ED001A0748D0ED001A4A
:103E600070EEA11A0748C0ED001A70470801002043
:103E700004010020100400201001002000002F4445
:103E8000000061C4E4000020E00000200F48D0EDF5
:103E9000000A0F4890ED001A70EEC10AB0EE600AF9
:103EA0000C480078401C00EE900AF8EEE00A60EE44
:103EB000200AB3EE091AC0EE811A0548D0ED000AB7
:103EC00071EEA00A0448C0ED000A7047E40000202B
:103ED000E00000209D000020DC00002010B502F072
:103EE0009BFB184890ED000ABDEEC00A10EE101AB8
:103EF000154890ED000ABDEEC00A10EE100A00B29F
:103F000000F028F8114880ED000A114908780F499F
:103F100091ED000AFFF708FF0D4948780B4991ED34
:103F2000000AFFF701FF0A498878084991ED000A65
:103F3000FFF7FAFE0649C878044991ED000AFFF739
:103F4000F3FE10BDE800002004010020F400002072
:103F5000A200002000EE101AB8EEC00A3A4A82ED24
:103F6000000A421A00EE902A384A92ED000AB8EE92
:103F7000E01A374AD2ED001A31EE611A20EE010A3A
:103F8000324A92ED011AF8EEE01A01EE210A314AA6
:103F900082ED000AB8EEE00A2D4A82ED000A2A4AB4
:103FA00092ED000A2B4A92ED001A30EE010A264AE1
:103FB00082ED000A92ED000A9FED271AB4EEC10AC5
:103FC000F1EE10FA03DD9FED240A82ED000A1E4A8D
:103FD00092ED000A9FED211AB4EEC10AF1EE10FA3B
:103FE00003D29FED1E0A82ED000A174A92ED000AE5
:103FF000B3EE0B1AB4EEC10AF1EE10FA08DD92ED41
:10400000000A9FED171A30EE010A82ED000A17E050
:10401000144A92ED000ABBEE0B1AB4EEC10AF1EE9F
:1040200010FA0DD2104A1268C83200EE102AB8EE0B
:10403000C00A054A92ED001A31EE400A82ED000AEC
:10404000014A92ED000A7047F4000020B4000020FD
:10405000EC000020F000002000004844000048C4AC
:1040600000004843E80000201C01002010B5FDF7C7
:1040700063FE10BD00B593B0302107A8FCF711F91D
:10408000142102A8FCF70DF900BF0020019024487C
:10409000006840F08050224908600846006800F03F
:1040A0008050019000BF00BF00BF002001901D485C
:1040B000006840F440401B4908600846006800F46E
:1040C0004040019000BF00BF0220079001200A90ED
:1040D00010200B9002200D9000210E9108210F91CD
:1040E00064211091022111910421129107A8FEF779
:1040F00039F808B1FDF735F90F200290022003903E
:10410000002004904FF48050059000200690032179
:1041100002A8FDF7E7FE08B1FDF723F913B000BDD3
:1041200040380240007000400548006840F47000CC
:10413000034908604FF0006001498039086070470A
:1041400088ED00E010B544480088401C00B24249A8
:1041500008804248406A42490860424A424943480E
:1041600002F046FF3D48406A3D490968401A3C4913
:1041700008603948B0F9000005280DDB00203649F9
:1041800008803648406A3A4908603448406A0968FD
:10419000401A374908605BE02F48008801280DD19C
:1041A0002E48406A33490860FDF730F82B48406AD2
:1041B00030490968401A2F49086049E026480088BC
:1041C00002280DD12548406A2B490860FDF7A6F862
:1041D0002248406A28490968401A2749086037E0A0
:1041E0001D480088032822D124480078401C234918
:1041F000087023480078401C214908701F48007847
:10420000052825DB1548406A1E490860FFF7DCFDDC
:10421000FFF73CFE002019490870194908700F4843
:10422000406A18490968401A1649086010E00A48AF
:10423000008804280CD10948406A13490860FFF738
:10424000CFFB0648406A10490968401A0E490860C9
:104250000E48FEF723FC10BD0400002000000140C2
:10426000080000209800002094000020900000200A
:104270000C00002010000020140000209C000020F2
:104280009D000020180000202000002008020020CF
:1042900010B50248FEF702FC10BD000088020020A5
:1042A00010B50268204B98420BD0B0F1804F08D077
:1042B0001E4B984205D01E4B984202D01D4B98428F
:1042C00003D122F070024B681A43174B984214D066
:1042D000B0F1804F11D0154B98420ED0144B98423C
:1042E0000BD0144B984208D0134B984205D0134B77
:1042F000984202D0124B984203D122F44072CB680C
:104300001A4322F080034C6943EA040202608B687E
:10431000C3620B688362044B984201D10B6903634B
:104320000123436110BD0000000001400004004073
:1043300000080040000C00400040014000440140E3
:104340000048014030B501F01F05012404FA05F3CF
:10435000046A9C430462046A01F01F0502FA05F531
:104360002C43046230BD30B50C46816821F47F4196
:1043700042EA032525432943816030BD0A4681680E
:1043800021F0700142F0070319438160704700007B
:1043900030B5056A25F001050562026A4368846943
:1043A00024F0700424F003040D682C4322F0020270
:1043B0008D682A430D4DA84206D100BF22F00802A5
:1043C000CD682A4322F00402084DA84207D123F405
:1043D000807323F400734D692B438D692B43436035
:1043E00084614D684563026230BD000000000140F9
:1043F00030B5056A25F010050562026A43688469D4
:1044000024F4E04424F440740D6844EA052422F0C6
:1044100020028D6842EA05120E4DA84207D100BF66
:1044200022F08002CD6842EA051222F04002094DD6
:10443000A84209D123F4806323F400634D6943EA61
:1044400085038D6943EA8503436084614D68856314
:10445000026230BD0000014030B5056A25F4807568
:104460000562026A4368C46924F0700424F00304FE
:104470000D682C4322F400728D6842EA05220F4D2C
:10448000A84207D100BF22F40062CD6842EA0522AB
:1044900022F48062094DA84209D123F4805323F409
:1044A00000534D6943EA05138D6943EA05134360E0
:1044B000C4614D68C563026230BD00000000014068
:1044C00030B5056A25F480550562036A4468C269FF
:1044D00022F4E04222F440720D6842EA052223F4FD
:1044E00000538D6843EA0533064DA84204D124F4F5
:1044F00080444D6944EA85144460C2614D68056496
:10450000036230BD0000014030B50B461446026A1C
:10451000056A25F001050562816921F0F00141EA93
:10452000041122F00A021A438161026230BD30B5E3
:104530000B461446056A25F0100505628169026A7A
:1045400021F4704141EA043122F0A00242EA031250
:104550008161026230BD00002DE9F84F04462068F9
:10456000006920F44050E16808432168086121692E
:10457000A068084361690843E16908430090206826
:10458000C06849F20C618843009908432168C860FB
:104590002068406920F44070A1690843216848619F
:1045A000E069B0F5004F75D1E3492068884203D037
:1045B000E249206888426FD1FDF76CFD81460220F8
:1045C0006168A0FB01510B461920A9FB00712A4626
:1045D0003846FBF7FDFD6421B0FBF1F04FEA001A0D
:1045E00002206168A0FB01510B461920A9FB007154
:1045F0002A463846FBF7ECFD074602206168A0FB1F
:1046000001510B461920A9FB00B12A465846FBF779
:10461000DFFD6421B0FBF1F000EBC00101EB001005
:10462000A7EB8000322101EBC0006421B0FBF1F068
:1046300000F0F8000AEB400A02206168A0FB01517B
:104640000B461920A9FB00712A463846FBF7C0FD2E
:10465000074602206168A0FB01510B461920A9FB07
:1046600000B12A465846FBF7B3FD6421B0FBF1F0D8
:1046700000EBC00101EB0010A7EB8000322101EB41
:10468000C0006421B0FBF1F000F007005044216845
:1046900088604FE16EE0FFE7FDF7ECFC8146022009
:1046A0006168A0FB01510B461920A9FB00712A4645
:1046B0003846FBF78DFD6421B0FBF1F04FEA001A9C
:1046C00002206168A0FB01510B461920A9FB007173
:1046D0002A463846FBF77CFD074602206168A0FBAE
:1046E00001510B461920A9FB00B12A465846FBF799
:1046F0006FFD6421B0FBF1F000EBC00101EB001095
:10470000A7EB8000322101EBC0006421B0FBF1F087
:1047100000F0F8000AEB400A02206168A0FB01519A
:104720000B461920A9FB00712A463846FBF750FDBD
:10473000074602206168A0FB015003461920A9FB2F
:1047400000B12A465846FBF743FD6421B0FBF1F067
:1047500000EBC00101EB0010A7EB8000322101EB60
:10476000C0006421B0FBF1F000F007005044216864
:104770008860DFE070492068884203D06F49206874
:1047800088426BD1FDF786FC814604206168A0FB5E
:1047900001510B461920A9FB00712A463846FBF748
:1047A00017FD824604206168A0FB01510B461920C9
:1047B000A9FB00712A463846FBF70AFD6421B0FBCD
:1047C000F1F000EBC00101EB0010AAEB80003221F8
:1047D00001EB00106421B0FBF1F000F0F00A0420BE
:1047E0006168A0FB015003461920A9FB00712A460D
:1047F0003846FBF7EDFC6421B0FBF1F00AEB001A40
:1048000004206168A0FB01510B461920A9FB00712F
:104810002A463846FBF7DCFC074604206168A0FB0B
:10482000015003461920A9FB00B12A465846FBF760
:10483000CFFC6421B0FBF1F000EBC00101EB0010F4
:10484000A7EB8000322101EB00106421B0FBF1F0F6
:1048500000F00F005044216888606BE0FDF70AFC0F
:10486000814604206168A0FB015003461920A9FB82
:1048700000712A463846FBF7ABFC8246042061688B
:10488000A0FB015003461920A9FB00712A463846B7
:10489000FBF79EFC6421B0FBF1F000EBC00101EBE3
:1048A0000010AAEB8000322101EB00106421B0FB64
:1048B000F1F000F0F00A04206168A0FB015003460B
:1048C0001920A9FB00712A463846FBF781FC6421B8
:1048D000B0FBF1F00AEB001A04206168A0FB017044
:1048E00003461920A9FB005001463A462846FBF72B
:1048F0006FFC074604206168A0FB015003461920A5
:10490000A9FB00B12A465846FBF762FC6421B0FBC4
:10491000F1F000EBC00101EB0010A7EB80003221A9
:1049200001EB00106421B0FBF1F000F00F005044E7
:1049300021688860BDE8F88F001001400014014034
:104940002DE9F04104460D4617469846069E21E0A3
:10495000701CF8B12EB1FCF74DFEA0EB0800B04280
:1049600018D92068C06820F4D0702168C860206819
:10497000406920F0010021684861202084F8390056
:1049800084F83A0000BF002084F8380000BF0320FC
:10499000BDE8F081206800682840A84201D10120CC
:1049A00000E00020B842D3D00020F1E700BFFEE7CE
:1049B0003EB5002400BF0FE04FF48071012208488B
:1049C00020441346CDE901210090002278210548BA
:1049D000FDF778F8601CC4B21B2CEDDB3EBD000077
:1049E00038000020600100200FB4054B10B503A96A
:1049F000044A029800F040FD10BC5DF814FB000072
:104A0000FD6500085801002003B40198410000989A
:104A100050EAC12018BF04204A0D18BF40F0010021
:104A200040F2FF72B2EB515F08BF40F00200012874
:104A300008BF052002B0704702480068C0F302209A
:104A4000704700000CED00E010B5002804DB0A07F9
:104A5000130E054A135406E00A07140E034A00F029
:104A60000F031B1FD45410BD00E400E018ED00E05C
:104A700070B5C1482DED020B2DED0E8B82B0119D4E
:104A800025F000449FEDBEDB9FEDBFEB84423EDB93
:104A9000A4F140511098A1F17F6108430FD0BC48A8
:104AA000844202DC28D1109830B39DED100B02B087
:104AB000BDEC0E8B02B0BDE8704000F085BC9DEDF2
:104AC000100B53EC1D2B51EC100BFBF7A9FC9DEDCB
:104AD000100B41EC180B53EC1E2B51EC100BFBF799
:104AE0009FFC53EC182BFBF7F4FB41EC100B02B0CE
:104AF000BDEC0E8B02B070BD012000F0AFFC02B027
:104B0000BDEC0E8B02B0BDE8704000F071BCA14856
:104B10009FEDA18B844256DA9DED100BB4F1795FC5
:104B20000ADA51EC100BFFF76FFF042808BF00F002
:104B30006FFC9DED100BDAE753EC102B51EC100BD2
:104B4000FBF76EFC41EC190B95480621B0EE490AC3
:104B5000F0EE690A784400F0BBFB53EC192B51ECE2
:104B6000100BFBF75DFC41EC1A0B8E48B0EE490AC6
:104B7000F0EE690A0421784400F0AAFB53EC192BEB
:104B800051EC100BFBF74CFC53EC182BFBF7A1FB83
:104B900041EC100B51EC1A0B53EC102BFBF7B2FC51
:104BA000CDE900019DED000B53EC102B9DED100B9A
:104BB00051EC100BFBF734FC9DED101B53EC112B4B
:104BC000FBF787FBD2E09DED100B51EC100B01F0D1
:104BD00009FD53EC182BFBF720FC9FED730BCDE97F
:104BE000000153EC102B9DED000B51EC100BFBF76B
:104BF00017FC41EC190B6E480621B0EE490AF0EEA5
:104C0000690A784400F064FB53EC192B51EC100B4B
:104C1000FBF706FC41EC1B0B6648B0EE490AF0EED0
:104C2000690A0421784400F053FB53EC192B51EC32
:104C3000100BFBF7F5FB53EC182BFBF74AFB41EC91
:104C40001C0B51EC190B03F065FB41EC180B5A4897
:104C50009FED5BABA04222DC53EC1C2B51EC1B0BF9
:104C6000FBF750FCCDE900019DED000B51EC180B5A
:104C700053EC102BFBF7D4FB53EC182BFBF729FB61
:104C800053EC1A2BFBF7CCFB53EC1D2BFBF7C2FBB1
:104C900053EC1E2BFBF7C1FB41EC100B5FE08DEDDD
:104CA000008B002000909DED000B51EC180B53EC95
:104CB000102BFBF70EFB9DED000B41EC1E0B53EC94
:104CC000102B51EC100BFBF7ABFB53EC192BFBF744
:104CD000A4FB53EC1E2BFBF715FC41EC190B53EC1A
:104CE0001C2B51EC1B0BFBF70DFC41EC1B0B53EC8D
:104CF0001A2B51EC190BFBF793FB53EC1D2BFBF715
:104D00008CFB41EC190B53EC1A2B51EC180BFBF7F5
:104D100087FB53EC1B2BFBF783FB53EC192BFBF7A7
:104D200079FB9DED000B41EC180B53EC1A2B51EC69
:104D3000100BFBF775FB9FED249B53EC192BFBF736
:104D40006CFB41EC100B51EC180B53EC102BFBF7E8
:104D500061FB53EC192BFBF760FB41EC100B002DB2
:104D60003FF7C5AE51EC100B81F0004141EC100B48
:104D7000BDE60000000000000000F03F0000000061
:104D8000075C143326A6913C182D4454FB21F93FAF
:104D90000000F07F0000E03F000000000000F03F56
:104DA000A84C0000B64C0000000000000000E03FEE
:104DB000FA4B0000084C00003333EF3F00000000C6
:104DC0000000000000000040182D4454FB21E93F82
:104DD00070B59B482DED020B2DED068B079D25F040
:104DE0000044A04218DC9748844202DC0AD10698AD
:104DF00040B19DED060BBDEC068B02B0BDE87040E6
:104E000000F0E2BA002DCCBF9FED8F0B9FED900B11
:104E1000BDEC068B02B070BD8F48A04215DD8F48F7
:104E2000A042D8BF4FF0FF3458DD9DED060B51EC8A
:104E3000100BFFF7E9FD042808BF00F0E9FA9DED2B
:104E4000060BBDEC068B02B070BD9DED060B51EC60
:104E5000100B01F0C7FBCDE9060181489FED828B65
:104E6000A0423CDD8248A0421FDD00249FED82ABC2
:104E70009DED060B53EC1A2B51EC100BFBF729FAA6
:104E80009DED060B41EC190B53EC1A2B51EC100B5A
:104E9000FBF7C6FA53EC182BFBF7BCFA53EC192BB3
:104EA000FBF730FBCDE9060149E09DED060B01243F
:104EB00053EC182B51EC100BFBF70BFA9DED060B86
:104EC00041EC190B53EC182B51EC100BFBF7A2FA29
:104ED00053EC192BFBF716FBCDE906012FE06848D0
:104EE000A0421FDD02249FED689B9DED060B53EC55
:104EF000192B51EC100BFBF793FA53EC182BFBF723
:104F0000E8F99DED060B41EC180B53EC192B51EC15
:104F1000100BFBF77FFA53EC182BFBF7F3FACDE9F4
:104F200006010CE09DED060B032453EC102B9FEDC6
:104F3000580B51EC100BFBF7E5FACDE906019DED9E
:104F4000060B53EC102B51EC100BFBF769FA41ECFC
:104F5000180B53EC182BFBF763FA41EC190B4E4876
:104F60000621B0EE490AF0EE690A784400F0B0F983
:104F700053EC182B51EC100BFBF752FA41EC180BC9
:104F80004648B0EE490AF0EE690A0521784400F07F
:104F90009FF953EC192B51EC100BFBF741FA41EC44
:104FA000100B51EC180B53EC102B002C0EDAFBF706
:104FB00090F99DED061B53EC112BFBF731FA9DED9B
:104FC000061B53EC112BFBF728FA35E0FBF781F9B0
:104FD0009DED061B53EC112BFBF722FA41EC100B55
:104FE0002F48784400EBC40090ED001B51EC100BEF
:104FF00053EC112BFBF70EFA9DED061B53EC112B16
:10500000FBF708FA41EC100B2648784400EBC4008B
:1050100090ED001B51EC100B53EC112BFBF7FDF93D
:1050200041EC100B002DA2BFBDEC068B02B070BD91
:1050300051EC100B81F0004141EC100B01E7000036
:10504000000010440000F07F182D4454FB21F93F6C
:10505000182D4454FB21F9BF0000DC3F0000203E26
:105060000000F33F00000000000000000000F03FDF
:105070000000E63F000000000000000000000040CB
:105080000080034000000000000000000000F83F26
:10509000000000000000F0BF4A4900000049000085
:1050A0008A4800004248000070B56B4E2DED040B9D
:1050B0002DED028B82B0DDF81CC0DDE905235C42DA
:1050C0002CF000411C4341EAD474049D22F00040BE
:1050D000B44205D86C422C4340EAD474B4420BD994
:1050E0009DED061B9DED040B02B0BDEC028B04B0E0
:1050F000BDE8704000F072B9ACF14054A4F17F6497
:105100001C430BD0022404EAAC7444EAD274054375
:105110009FED538B9FED542B07D015E09DED040BB5
:1051200051EC100B00F03AFC42E0002C11BF012CB6
:105130009DED040B02B0BDEC028B04BF04B070BD4A
:10514000022C38D0032C3BD00B439FED491B9FED25
:105150004A0B0AD0B14218D1B04209D121F08041A6
:1051600020F08040079105900FE0002A15DA10E04A
:10517000434B7B44002C08BF93ED000B0DD0012C5A
:1051800010D0022C17D0032C1AD0B0421DD1002A07
:1051900003DAB0EE410AF0EE610A02B0BDEC028B18
:1051A00004B070BD93ED000B51EC100B81F0004189
:1051B00041EC100BF1E7B0EE480AF0EE680AECE7BC
:1051C000B0EE420AF0EE620AE7E7401A00153C280A
:1051D000C8BF8DED000B19DCBCF1000FBEBF10F194
:1051E0003C0F9FED290B8DED000B0FDB9DED060BAA
:1051F00053EC102B9DED040B51EC100BFBF782F9D7
:1052000001F0F0F900F0CAFBCDE90001002C08BF65
:105210009DED000BC1D0012C10D0022C9FED1C0B7A
:1052200053EC102B9DED000B51EC100B0DD0FBF748
:10523000F1F853EC182BFBF7EDF8B9E7019880F083
:10524000004001909DED000BA7E7FBF7E3F853EC5E
:10525000182BFBF7E2F8ABE70000F07F000000003E
:10526000182D4454FB210940182D4454FB2109C03A
:10527000182D4454FB21F9BF182D4454FB21F93F4C
:105280007247000000000000000000000000000065
:10529000075C143326A6A13C30B583B0044600F069
:1052A000C7F89FED090B05468DED000B0022214646
:1052B0006846FBF712FA284600F0D0F89DED000B87
:1052C00003B030BD0000000000000000000000003E
:1052D00070B504462DED028B4D1E00EBC500B0EEFF
:1052E000408AF0EE608A90ED000B35F0060017D092
:1052F00053EC182B51EC100BFBF792F841EC100B10
:105300006D1E04EBC50090ED001B51EC100B53EC2F
:10531000112BFAF7DEFF41EC100B35F00600E7D158
:10532000022D36D0042D1CD0062D1CBFBDEC028BE7
:1053300070BD53EC182B51EC100BFBF771F894ED8A
:105340000A1B53EC112BFAF7C4FF53EC182BFBF795
:1053500067F894ED081B53EC112BFAF7BAFF41ECF8
:10536000100B53EC182B51EC100BFBF759F894ED84
:10537000061B53EC112BFAF7ACFF53EC182BFBF781
:105380004FF894ED040B53EC102BFAF7A2FF41EC0D
:10539000100B53EC182B51EC100BFBF741F894ED6C
:1053A000021B53EC112BFAF794FF53EC182BFBF76D
:1053B00037F894ED001B53EC112BFAF78AFFBDEC84
:1053C000028B41EC100B70BD10B553EC102B51EC5F
:1053D000100BFAF77EFF41EC100B10BD10B553EC2B
:1053E000112B51EC100BFAF774FF41EC100B10BDB0
:1053F0009FED050B10B553EC102B51EC100BFBF788
:1054000081F841EC100B10BD00000000000000000E
:105410009FED050B10B553EC102B51EC100BFAF768
:10542000FFFF41EC100B10BD000000000000001059
:1054300001480068704700005C01002002E008C8D5
:10544000121F08C1002AFAD170477047002001E0FE
:1054500001C1121F002AFBD17047000001490860FA
:10546000704700005C01002030380A2801D201207A
:1054700070470020704700002DE9FF4F8DB00F46A8
:105480000546002606E025280BD0DDE90F129047DF
:105490006D1C761C28780028F5D111B03046BDE887
:1054A000F08F0024A246A1460122EC4900E004430B
:1054B00015F8013F203B02FA03F00842F7D12878A3
:1054C0002A2810D06FF02F022878A0F13001092986
:1054D00014D80AEB8A0102EB410144F0020400EB0C
:1054E000010A6D1CF0E701CF5FEA000A03D544F41E
:1054F0000054CAF1000A44F002046D1C28782E28DA
:1055000017D115F8010F44F004042A280ED06FF0CB
:105510002F022878A0F1300109290AD809EB890166
:1055200002EB410100EB01096D1CF2E757F8049B07
:105530006D1C28786C280FD006DC4C2817D0682802
:105540000DD06A2814D104E0742810D07A280FD125
:105550000DE044F400140AE044F4801401E044F443
:1055600040146978814202D104F580146D1C6D1CD1
:105570002A786E2A1FD00CDC632A31D004DC002A82
:105580008BD0582A11D1A3E0642A68D0692A0CD1A3
:1055900065E0732A2ED004DC6F2A73D0702A04D100
:1055A0009BE0752A6FD0782A6ED01046DDE90F1285
:1055B0009047761C50E1C4F30250022806D003281D
:1055C00009D0042801CF09D0066045E101CFF117C9
:1055D000C0E9006140E101CF06803DE106703BE19A
:1055E00017F8040B8DF8000000208DF80100EB4641
:1055F000012003E057F804BB4FF0FF3061074FF084
:10560000000102D40DE008F10101884649450FDA96
:105610008045F8DB1BF808100029F4D108E008F1F8
:10562000010188468142FADB1BF808100029F6D1F7
:10563000DDE90F23AAEB08008146214600F036F988
:10564000304400EB080604E0DDE90F121BF8010B03
:105650009047B8F10108F7D221464846F7E00A2101
:10566000C4F302534FF0000B0891022B04D001CF7A
:10567000C117032B09D00AE0FF1D27F00707F7E841
:10568000020108E032E01FE020E000B2C117042B65
:1056900001D140B2C117031E71F1000307DA4FF0C8
:1056A000000CD0EB0C006CEB01012D2302E0230574
:1056B00004D52B238DF82430012303E0E30701D028
:1056C0002023F7E7984658E00A2110E010210EE069
:1056D00010204FF0000B08900CE010214FF0000B51
:1056E00044F004044FF00809089103E008214FF04A
:1056F000000B0891C4F30253022B04D001CF002108
:10570000032B06D006E0FF1D27F00707F7E802018C
:1057100003E080B2042B00D1C0B24FF00008230791
:105720002BD5702A07D0DDF820C08CF0100C5CEA75
:105730000B0C05D00EE040238DF82430012308E047
:1057400050EA010306D030238DF824308DF825204F
:1057500002239846DDF820C08CF0080C5CEA0B0CA4
:105760000BD150EA010301D1630706D530238DF830
:1057700024304FF00108A9F10109582A04D038A2B9
:105780000B9208AA0A920BE03AA2F9E75B46089A44
:10579000FAF71EFD0B9B9B5C0A9A521E0A9213702D
:1057A00050EA0102F2D10A98ADEB000000F1200BA3
:1057B000600702D524F4803401E04FF00109D94597
:1057C00002DDA9EB0B0000E0002000EB0B014144DF
:1057D0000890AAEB010AE00306D4DDE90F23214675
:1057E000504600F063F806444FF0000908E009A9AC
:1057F00011F80900DDE90F12904709F10109761C43
:10580000C145F4DBE0030CD5DDE90F23214650460A
:1058100000F04CF8064404E0DDE90F123020904718
:10582000761C0899481E08900029F5DC08E00A98C3
:105830000A990078491C0A91DDE90F129047761CFD
:10584000BBF10001ABF1010BF1DC21465046DDE973
:105850000F2300F019F806446D1C1BE6092801000F
:1058600030313233343536373839616263646566D6
:105870000000000030313233343536373839414298
:1058800043444546000000002DE9F0410446002550
:105890001E461746880404D405E039462020B04748
:1058A0006D1C641EF9D52846BDE8F0812DE9F04154
:1058B000044600251E469046C80301D5302700E067
:1058C0002027880404D505E041463846B0476D1CC2
:1058D000641EF9D52846BDE8F0810000F0B52DED35
:1058E000028B83B006460F460025684600F0E4FEB2
:1058F000002447E056F8241057F82420881A00287E
:1059000001DB014600E0414200EE101AB8EEC00A89
:10591000DFED200A80EE208A684600EB840090EDDF
:10592000000AB5EEC00AF1EE10FA18D0684600EB96
:105930008400D0ED000A88EE200AF7EE000A70EE2F
:10594000608AB0EEE80A1448D0ED090AB4EEE00A25
:10595000F1EE10FA15DD0120A040054311E00E48DC
:1059600090ED070AB4EEC80AF1EE10FA06DC90EDED
:10597000080AB4EEC80AF1EE10FA02D20120A040E3
:105980000543641C032CB5DB284603B0BDEC028B39
:10599000F0BD000000008047DC8B000810B541EC32
:1059A000100BFFF715FA51EC100B10BD2DE9F0416B
:1059B0000446E07800F0C006E07800F03F0560782B
:1059C00000F0010098B1EF102846E91705EB51717E
:1059D000C910A5EBC101491C01F0FF080B48006884
:1059E00020B10A48414602683846904700BF6078B7
:1059F00000F0080030B10548406818B1B011034A02
:105A0000516888470020BDE8F08100006004002054
:105A100038B5044664B120208DF8000028208DF8A8
:105A2000010030208DF8020038208DF8030004E0DA
:105A3000A32204216846FAF72DFC6A46042140F6A9
:105A40009E2002F087FB01F071FF38BD3EB5044691
:105A500002208DF80000CA208DF80100E3208DF8A7
:105A6000020009208DF803006A460421682002F034
:105A700071FBA3208DF8000004F0400048B1C02065
:105A80008DF80100C8208DF80200C2208DF80300B7
:105A900006E0A3208DF801008DF802008DF80300C8
:105AA00004F4C07048B1C4208DF80400CC208DF8F7
:105AB0000500C6208DF8060006E0A3208DF804003E
:105AC0008DF805008DF80600A3208DF807008DF8ED
:105AD00008008DF809006A460A2140F6A72002F066
