:020000040800F2
:1000000058060020AD010008152E0008192500082B
:100010003D2D000879090008253A0008000000007D
:100020000000000000000000000000005B3000083D
:100030007D0900080000000059300008A5300008C4
:10004000C7010008C7010008C7010008C701000870
:10005000C7010008C7010008C7010008C701000860
:10006000C7010008C7010008C7010008C701000850
:10007000C7010008C7010008C7010008C701000840
:10008000C7010008C7010008C70100080000000000
:10009000000000000000000000000000C701000890
:1000A000C701000879310008C7010008C70100082E
:1000B000C7010008C7010008C7010008C701000800
:1000C000C7010008C7010008C7010008C7010008F0
:1000D000C7010008153A0008C70100080000000029
:1000E000C7010008C7010008C701000800000000A0
:1000F000000000000000000000000000C701000830
:1001000000000000C7010008C7010008C70100087F
:1001100000000000000000000000000000000000DF
:10012000C7010008C7010008C7010008C70100088F
:10013000C7010008000000000000000000000000EF
:10014000000000000000000000000000C7010008DF
:10015000C7010008C7010008C7010008C70100085F
:10016000C7010008C70100080000000000000000EF
:10017000000000000000000000000000000000007F
:1001800000000000C701000800000000000000009F
:10019000C7010008C7010008DFF80CD000F066FBBB
:1001A00000480047115D00085806002006488047B7
:1001B00006480047FEE7FEE7FEE7FEE7FEE7FEE74C
:1001C000FEE7FEE7FEE7FEE75D3100089901000863
:1001D0002DE9F05F0546002092469B46884606467C
:1001E000814640241BE0284641464746224600F00F
:1001F00036FA53465A46C01A914110D31146184652
:10020000224600F01DFA2D1A67EB01084F462246E0
:100210000120002100F014FA17EB00094E41201EC6
:10022000A4F10104DFDC484631462A464346BDE8D6
:10023000F09F2DE9F0410024061B254671F10006D0
:1002400005DA01240027D0EB070067EB0101161E39
:1002500073F1000605DA0027D2EB0702012567EBF0
:100260000303FFF7B5FF86460E4617469C46AC4291
:1002700004D00025D0EB050E65EB010624B100206B
:10028000D2EB000760EB030C704631463A466346FA
:10029000BDE8F081D2B201E000F8012B491EFBD28B
:1002A00070470022F6E710B513460A460446194681
:1002B000FFF7F0FF204610BD30B50446002003468E
:1002C00000E05B1C934203D2E05CCD5C401BF8D0A5
:1002D00030BD2DE9FE4F804681EA0300C00F0C4679
:1002E000009021F0004123F00045B8EB0200A94145
:1002F00005D24046214690461C460B46024623F056
:100300000040104347D0270DC7F30A00C3F30A513A
:100310000290401A019040286BDAC3F3130040F4B6
:10032000801B0098924620B10023D2EB030A63EBB6
:100330000B0B01985946C0F14002504600F080F97D
:1003400006460D4650465946019A00F098F910EBC2
:1003500008006141002487EA115284EAE7731A43D6
:1003600040D0009A62B3019A012A4FEA075215DC85
:10037000001B61EB02014FF0004202EA0752CDE997
:100380000042001C41F5801132462B4600F0CFF9A7
:1003900003B0BDE8F08F40462146F9E7001B61EB52
:1003A0000201001C41F5801300185B412018A2F5E2
:1003B000001747EB030140EAD570B6196D4111E013
:1003C0006D084FEA360645EAC0754FEA0752001B32
:1003D00061EB0201001C41F5801149084FEA300031
:1003E0000019514132462B4603B0BDE8F04F00F0F2
:1003F0008FB90098012240000023D0EB020263EB8A
:10040000E073009821464FEAE074B8EB000061EB1E
:100410000401E9E783F000435BE781F0004158E71E
:100420002DE9FE4F81EA030404F0004421F000416D
:1004300000944FF0000B23F0004350EA01045ED01B
:1004400052EA03045BD0C3F30A54C1F30A552C44A7
:10045000A4F2F3340194A0FB0254C1F3130141F45C
:100460008011C3F3130343F4801301FB024400FB28
:10047000034E840A970A44EA815447EA8357A4FB4F
:10048000076802958D0A05FB07854FEA932C04FB4C
:100490000C542705029D4FEA065847EA1637B5EB7C
:1004A00008056EEB070C870E920E47EA811742EAA9
:1004B0008312A7FB0201B6EB0B0164EB00042B0DCA
:1004C00043EA0C335E1844EB1C50DA465146E7FB16
:1004D0000201C5F313044FEA0B3343EA14534FEA06
:1004E0000432019C43EA0603A4F10C040294009C2C
:1004F000CDE900B400F01BF903B0BDE8F08F002097
:100500000146F9E72DE9F04D81EA030404F0004BC0
:1005100021F0004514464FF0000A23F0004150EA54
:10052000050220D054EA01021DD0C5F30A57024645
:10053000C5F31303C1F31300C1F30A5640F4801549
:1005400043F48013A7EB0608101BD64608F2FD38CB
:1005500073EB050002D308F1010801E092185B413A
:10056000B8F1000F03DA00200146BDE8F08D00204D
:100570004FF48011064684460EE0171B73EB050707
:1005800005D3121B63EB050306434CEA010C490833
:100590004FEA300092185B4150EA0107EDD152EA70
:1005A000030012D082EA040083EA0501084305D063
:1005B000101BAB4106D20122002306E000224FF0BF
:1005C000004302E06FF0010253101AEB06004CEBFF
:1005D000085110EB0A0041EB0B01BDE8F04D00F0B3
:1005E00097B800F0004230F000400AD0C10D01F58C
:1005F0006071C0F3160042EA0151C208400711437E
:10060000704700200146704701F0004330B421F0EC
:10061000004150EA010206D00A0DA2F56072C1F352
:100620001301002A02DC30BC00207047440F44EA6A
:10063000C104C100E01830BC00EBC25000F031B87A
:10064000202A04DB203A00FA02F100207047914092
:10065000C2F1200320FA03F3194390407047202A87
:1006600004DB203A21FA02F00021704721FA02F35C
:10067000D040C2F120029140084319467047202A19
:1006800006DBCB17203A41FA02F043EAE07306E0BA
:1006900041FA02F3D040C2F12002914008431946CA
:1006A00070470029A8BF7047401C490008BF20F0D0
:1006B0000100704710B4B0FA80FC00FA0CF050EA68
:1006C000010404BF10BC704749B1CCF1200421FAE9
:1006D00004F411FA0CF118BF012121430843A3EBE4
:1006E0000C01CB1D4FEA00614FEA102042BF0020F1
:1006F00010BC704700EBC35010440029A4BF10BCCD
:100700007047401C490008BF20F0010010BC704732
:1007100010B5141E73F1000408DA401C41F1000109
:1007200092185B411A4301D120F0010010BD2DE960
:10073000F04D92469B4611B1B1FA81F202E0B0FA57
:1007400080F220329046FFF77BFF04460F4640EAD6
:100750000A0041EA0B0153465A46084313D011469A
:1007600053EA010019D0C8F140025046FFF777FF65
:1007700005460E46504659464246FFF761FF08437C
:1007800005D0012004E020463946BDE8F08D002068
:10079000054346EAE0762C4337430A986305E40AAA
:1007A000A0EB08000022FD0A44EA47540A3002D5B3
:1007B00000200146E9E7010510196941DDE9084516
:1007C00000196941BDE8F04DA2E72DE9F04D002385
:1007D0001A461B1A8A4103DB00200146BDE8F08D52
:1007E000C1F30A52C1F3130141F480154FF0000B1D
:1007F000D10702D100186D41521E0027044640F275
:10080000FF11384601EB620A3E4680460246002050
:100810004FF48011FFF723FFC2197141BB1846EB5B
:100820000100B4EB030C75EB000C04D3E41A65EB88
:10083000000517460E46241908F101006D41804657
:100840003428E3DDF91946EB0600091BA84103D261
:100850004FF0FF32134601E0002213461BEB070066
:1008600046EB0A51BDE8F04DFFF752BF064C074D6D
:1008700006E0E06840F0010394E807009847103470
:10088000AC42F6D3FFF78CFC508700087087000855
:1008900010B5174A1749184802F0EAF81648B0F997
:1008A000000000EE100AB8EEC00ADFED140A80EE78
:1008B000201A134880ED001A90ED000A1148D0ED7F
:1008C000000A30EE600ADFED100A80EE201A0F48B1
:1008D00080ED001A0E4890ED000A0E4880ED000AE7
:1008E000074890ED000A074880ED000A10BD00009F
:1008F000400000203E0000203C0000203333034332
:100900007000002074000020CDCC4C3D7800002009
:10091000040000207C000020114890ED000ADFED6B
:10092000110A30EEC00A1048D0ED000A20EE200A6D
:10093000D0ED010A0D4890ED001A01EE200A0C4896
:10094000D0ED000A9FED071A71EE600A064890ED9F
:10095000021A00EE810A074880ED000A7047000085
:100960007C000020000000006400002078000020CF
:10097000700000208000002000BFFEE7704772B6C4
:1009800000BFFEE7014691F83500022803D0802021
:10099000486501207047052081F835000868006827
:1009A00020F001000A6810600020F3E770B50446EB
:1009B00000F0FAF806462546681C10B10448007895
:1009C000054400BF00F0F0F8801BA842FAD370BDC8
:1009D00014000020F8B503460A4600250024002034
:1009E0000021CDE0012606FA01F5166806EA0504A5
:1009F000AC4273D15668012E08D05668022E05D03D
:100A00005668112E02D05668122E13D198684F00E6
:100A10000326BE40B0434F00D668BE4030439860C6
:100A2000586801268E40B0431679C6F300168E40F2
:100A300030435860D8684F000326BE40B0434F0093
:100A40009668BE403043D8605668022E02D0566881
:100A5000122E13D1CF0803F1200656F827004E07B7
:100A6000F70E0F26BE40B0434F07FF0E1669BE407B
:100A70003043CF0803F1200646F8270018684F00DE
:100A80000326BE40B043167906F003064F00BE4071
:100A900030431860566806F08056B6F1805F6ED11C
:100AA00000BF00260096384E366846F48046364F22
:100AB0003E603E46366806F48046009600BF00BFA2
:100AC000324E8F0856F827008E07370F0F26BE408C
:100AD000B0432F4EB34202D1002615E04FE02D4E19
:100AE000B34201D101260FE02B4EB34201D10226C1
:100AF0000AE02A4EB34201D1032605E0284EB34254
:100B000001D1042600E007268F073F0FBE40304387
:100B10001E4E8F0846F82700224E3068A0435668C4
:100B200006F48036B6F5803F00D120431D4E30607C
:100B3000361D3068A043566806F40036B6F5003F0F
:100B400000D12043174E361D3060361D3068A0435B
:100B5000566806F48016B6F5801F00D12043114E6A
:100B600008363060361D3068A043566806F400161B
:100B7000B6F5001F00D120430A4E0C363060491CE8
:100B80001029FFF42FAFF8BD443802400838014067
:100B9000000002400004024000080240000C024035
:100BA00000100240003C014001480068704700000E
:100BB0000C00002070B504460CB9012070BD94F8FB
:100BC0003D0028B9002084F83C00204600F006FBD8
:100BD000242084F83D002068006820F0010021688E
:100BE00008602068006840F40040216808602068C0
:100BF000006820F400402168086000F015FD0546FB
:100C00005C496068884206D85B48854201D2012071
:100C100007E0002005E05948854201D2012000E0AC
:100C20000020012800D1C9E75548B5FBF0F620683F
:100C3000406820F03F003043216848604D496068BB
:100C4000884201D8701C07E04FF4967070434FF44F
:100C50007A71B0FBF1F0401C2168096A21F03F0174
:100C600008432168086243496068884214D8681EB6
:100C700061684900B0FBF1F0401CC0F30B00042890
:100C800001D204203DE0681E61684900B0FBF1F02C
:100C9000401CC0F30B0034E0A06838B9681E6168DE
:100CA00001EB4101B0FBF1F0401C0AE0681E6168F5
:100CB00001EBC10202EB0111B0FBF1F0401C40F46A
:100CC0008040C0F30B0008B901201AE0A06848B9C1
:100CD000681E616801EB4101B0FBF1F0401CC0F3FC
:100CE0000B000CE0681E616801EBC10202EB011110
:100CF000B0FBF1F0401CC0F30B0040F4804040F426
:100D000000402168C9694CF6FF729143084321688D
:100D1000C861D4E9070108432168096821F0C001CE
:100D2000084321680860D4E90310084321688968F2
:100D300048F2FF329143084321688860D4E90501F5
:100D400008432168C96821F0FF0108432168C86091
:100D50002068006840F001002168086000202064DD
:100D6000202084F83D000020206384F83E0000BF6E
:100D700024E70000A086010080841E0000093D00D9
:100D800040420F002DE9FC5F04460F46904699460D
:100D9000DDE90CAB0E9EFFF707FF054694F83D001A
:100DA000202870D119230122B0492046009501F076
:100DB00023FD10B10220BDE8FC9F00BF94F83C0069
:100DC000012801D10220F6E7012084F83C0000BF91
:100DD0002068006800F0010028B92068006840F031
:100DE0000100216808602068006820F40060216824
:100DF0000860222084F83D00402084F83E00002056
:100E00002064C4F824A0A4F82AB0608D20859848F6
:100E1000E0624B46424639462046CDE9006501F086
:100E20009DFB08B10120C6E7208D88B900BF0020D6
:100E3000019020684069019020688069019000BF9E
:100E400000BF2068006840F400702168086040E03E
:100E5000208D012818D12068006820F48060216866
:100E6000086000BF00200190206840690190206860
:100E70008069019000BF00BF2068006840F40070E6
:100E80002168086025E0EFE0208D022816D1206857
:100E9000006820F48060216808602068006840F4E1
:100EA00000602168086000BF002001902068406950
:100EB000019020688069019000BF0AE000BF002017
:100EC000019020684069019020688069019000BF0E
:100ED00000BFBAE0208D03287ED8208D012815D1CF
:100EE0002A463146204601F02CFD08B1012062E778
:100EF00020680069616A0870606A401C6062208D29
:100F0000401E2085608D401E60859EE0208D022859
:100F10002AD13346002257492046009501F06CFC47
:100F200008B1012047E72068006840F4007021689C
:100F3000086020680069616A0870606A401C60622D
:100F4000208D401E2085608D401E608520680069D0
:100F5000616A0870606A401C6062208D401E2085B6
:100F6000608D401E608570E0334600224149204676
:100F7000009501F041FC08B101201CE720680068E1
:100F800020F480602168086020680069616A087048
:100F9000606A401C6062208D401E2085608D401E6E
:100FA00060853346002233492046009501F024FC39
:100FB00008B10120FFE62068006840F40070216855
:100FC000086020680069616A0870606A401C60629D
:100FD000208D401E208500E010E0608D401E608561
:100FE00020680069616A0870606A401C6062208D38
:100FF000401E2085608D401E608526E02A463146D1
:10100000204601F09EFC08B10120D4E6206800696A
:10101000616A0870606A401C6062208D401E2085F5
:10102000608D401E608520684069C0F3800060B11B
:1010300020680069616A0870606A401C6062208DE7
:10104000401E2085608D401E6085208D00287FF425
:1010500041AF202084F83D00002084F83E0000BF0E
:1010600084F83C0000BFA6E60220A4E602001000BF
:101070000000FFFF040001002DE9FC5F04460F465D
:1010800090469946DDE90CAB0E9EFFF78DFD0546B7
:1010900094F83D0020287DD1192301224D49204696
:1010A000009501F0A9FB10B10220BDE8FC9F00BF34
:1010B00094F83C00012801D10220F6E7012084F8D1
:1010C0003C0000BF2068006800F0010028B92068DB
:1010D000006840F00100216808602068006820F482
:1010E000006021680860212084F83D00402084F8D9
:1010F0003E0000202064C4F824A0A4F82AB0608D2B
:1011000020853548E0624B46424639462046CDE9C7
:10111000006501F0D3FA08B10120C6E731E02A46A4
:101120003146204601F04DFC50B1206C042805D119
:101130002068006840F40070216808600120B4E76E
:10114000606A007821680861606A401C6062208DD6
:10115000401E2085608D401E608520684069C0F378
:10116000800070B1208D60B1606A007821680861EC
:10117000606A401C6062208D401E2085608D401E8C
:101180006085208D0028CAD12A463146204601F0CC
:1011900005FB00E01CE050B1206C042805D120685C
:1011A000006840F400702168086001207DE7206835
:1011B000006840F4007021680860202084F83D0039
:1011C000002084F83E0000BF84F83C0000BF6CE7BC
:1011D00002206AE7020010000000FFFF10B586B091
:1011E0000446142101A8FFF75CF83C4920688842B6
:1011F0002FD100BF002000903948006840F0020065
:10120000374908600846006800F00200009000BFFF
:1012100000BFC02001901220029001200390032003
:1012200004900420059001A92E48FFF7D3FB00BFCE
:10123000002000902A481030006840F4001028492F
:10124000103108600846006800F40010009000BFEC
:1012500041E02549206888423DD100BF0020009030
:101260001F48006840F002001D49086008460068F9
:1012700000F00200009000BF00BF0815019012208E
:10128000029001200390032004900420059001A9FE
:101290001448FFF79FFB08200190122002900120C4
:1012A0000390032004900920059001A90D48FFF741
:1012B00091FB00BF0020009009481030006840F406
:1012C00080000749103108600846006800F480007B
:1012D000009000BF00BF06B010BD000000540040E9
:1012E00030380240000402400058004003480068C3
:1012F0000349097808440149086070470C00002040
:101300001400002010B50D48006840F400700B492F
:1013100008600846006840F480600860084600687D
:1013200040F480700860032000F0A2F8002000F074
:1013300007F800F02BF8002010BD0000003C024030
:1013400070B504460E4800784FF47A71B1FBF0F0A6
:101350000C490968B1FBF0F5284600F021FC08B102
:10136000012070BD102C07D200222146501E00F033
:1013700041F80548046001E00120F2E70020F0E7B1
:1013800014000020180000201000002008B500BF45
:10139000002000900E48006840F480400C4908602E
:1013A0000846006800F48040009000BF00BF00BF06
:1013B00000200090081F006840F08050091F08605E
:1013C0000846006800F08050009000BF00BF08BDD4
:1013D0004438024001460846002809DB00F01F039C
:1013E00001229A4043099B0003F1E023C3F8002146
:1013F00000BF70472DE9F05F80460D461646002776
:1014000002F056FB074639462A46334601F00700EC
:10141000C0F1070ABAF1040F02D94FF0040A01E043
:10142000C0F1070AD14600F1040ABAF1070F02D24F
:101430004FF0000A01E0A0F1030AD4464FF0010A80
:101440000AFA09FAAAF1010A0AEA020A0AFA0CFAE5
:101450004FF0010B0BFA0CFBABF1010B0BEA030B8A
:101460004AEA0B042146404602F02AFBBDE8F09F01
:1014700000BF00F00702064B19684FF6FF03194042
:10148000044B0B4343EA0221014B196000BF704734
:101490000CED00E00000FA0570B504460D460CB9ED
:1014A000012070BD5848006800F00F00A84209D222
:1014B00055490D700846006800F00F00A84201D0A1
:1014C0000120EEE7207800F0020002281DD12078EC
:1014D00000F00400042805D14C48006840F4E050B6
:1014E0004A490860207800F00800082805D14748DC
:1014F000006840F46040454908604448006820F0B6
:10150000F000A168084341490860207800F001001C
:10151000A8B36068012807D13C4808380068C0F3C8
:101520004040B8B90120BCE76068022802D060687A
:10153000032807D1354808380068C0F3406048B92F
:101540000120AEE7314808380068C0F3400008B910
:101550000120A6E72D48006820F0030061680843D9
:101560002A490860FFF720FB064609E0FFF71CFB4D
:10157000801B41F28831884202D9032091E707E0BD
:101580002248006800F00C006168B0EB810FEDD1DB
:101590001D48006800F00F00A84209D91A490D70D3
:1015A0000846006800F00F00A84201D0012078E74B
:1015B000207800F00400042807D11448006820F4C3
:1015C000E050E168084311490860207800F0080005
:1015D000082808D10D48006820F46040216940EADD
:1015E000C1000A49086000F03FF808490968C1F3E2
:1015F0000311074A515CC840064908600648006864
:10160000FFF79EFE00204CE7003C024008380240F5
:1016100092710008180000201000002001480068A6
:10162000704700001800002000B5FFF7F7FF0449DD
:101630000968C1F38221034A515CC84000BD000023
:1016400008380240A271000800B5FFF7E7FF04491F
:101650000968C1F34231034A515CC84000BD000033
:1016600008380240A27100082DE9F0470024002547
:101670000026A1462548006800F00C0020B104288F
:1016800005D008283AD105E0DFF8849039E0DFF88A
:10169000849036E01D48001F006800F03F041B489E
:1016A000001F006800F4800078B11A481749091F2C
:1016B0000968C1F38811A0FB01700146224600238E
:1016C0003846FEF785FD05460EE011480F49091F13
:1016D0000968C1F38811A0FB01700146224600236E
:1016E0003846FEF775FD05460848001F0068C0F340
:1016F0000140401C4600B5FBF6F902E0DFF810900F
:1017000000BF00BF4846BDE8F0870000083802402F
:101710000024F40040787D01F8B504460CB901209E
:10172000F8BD207800F00100002874D0F948006866
:1017300000F00C0004280DD0F648006800F00C0002
:10174000082813D1F348001F006800F48000B0F5AA
:10175000800F0BD1EF4808380068C0F340400028E4
:1017600059D06068002856D10120D9E700BF6068D1
:10177000B0F5803F08D1E7480838006840F4803071
:10178000E449083908601EE06068B0F5A02F0DD16B
:10179000E0480838006840F48020DE4908390860D5
:1017A0000846006840F4803008600CE0D9480838EA
:1017B000006820F48030D74908390860084600687E
:1017C00020F48020086000BF606890B1FFF7ECF95A
:1017D000054606E0FFF7E8F9401B642801D903201D
:1017E0009EE7CC4808380068C0F340400028F1D09C
:1017F00011E0FFF7D9F9054606E0FFF7D5F9401BE0
:10180000642801D903208BE7C24808380068C0F378
:1018100040400028F1D1207800F0020002285FD17A
:10182000BC48006800F00C0058B1BA48006800F0ED
:101830000C0008281CD1B748001F006800F4800085
:10184000B0B9B44808380068C0F3400020B1E0687F
:10185000012801D0012063E7AE480838006820F075
:10186000F800216940EAC100AA490839086037E058
:10187000E06800B30120A8490860FFF795F9054624
:1018800006E0FFF791F9401B022801D9032047E742
:10189000A04808380068C0F340000028F1D09D48F7
:1018A0000838006820F0F800216940EAC100994931
:1018B0000839086014E0002097490860FFF774F9C0
:1018C000054606E0FFF770F9401B022801D9032006
:1018D00026E7904808380068C0F340000028F1D19E
:1018E000207800F0080008282CD16069A8B10120F8
:1018F0008A490860FFF758F9054606E0FFF754F9F2
:10190000401B022801D903200AE782486C30006896
:10191000C0F340000028F1D014E000207F490860A7
:10192000FFF742F9054606E0FFF73EF9401B0228A3
:1019300001D90320F4E677486C300068C0F340001A
:101940000028F1D1207800F00400042870D100278D
:1019500070483830006800F0805090B900BF002017
:1019600000906C483830006840F080506949383148
:1019700008600846006800F08050009000BF00BF7B
:1019800001276748006800F48070B0B964480068B7
:1019900040F4807062490860FFF706F9054606E0EA
:1019A000FFF702F9401B022801D90320B8E65C4882
:1019B000006800F480700028F2D000BFA068012801
:1019C00008D154486830006840F00100514968313E
:1019D00008601DE0A06805280DD14E4868300068F9
:1019E00040F004004B49683108600846006840F048
:1019F000010008600CE047486830006820F00100F2
:101A00004449683108600846006820F00400086016
:101A100000BFA068A8B1FFF7C7F8054609E0FFF7C7
:101A2000C3F8401B41F28831884202D9032077E68F
:101A300026E0384868300068C0F340000028EED047
:101A400013E0FFF7B1F8054608E0FFF7ADF8401BDB
:101A500041F28831884201D9032061E62D4868307F
:101A60000068C0F340000028EFD1012F07D12948BA
:101A70003830006820F0805026493831086000BFB7
:101A8000A069002845D02348006800F00C00082811
:101A90005DD0A069022845D100201F490866FFF7E4
:101AA00083F8054606E0FFF77FF8401B022801D9BE
:101AB000032035E6174808380068C0F34060002866
:101AC000F1D1D4E907010843616A40EA811101229A
:101AD000A06AC2EB500041EA00412C20005D41EABF
:101AE00000600C49091F086001200B490866FFF7D8
:101AF0005BF8054606E0FFF757F8401B022801D9BE
:101B000003200DE6034808380068C0F34060002851
:101B1000F1D03FE00838024000004742800E4742C3
:101B20000070004000201C490866FFF73DF805469C
:101B300006E0FFF739F8401B022801D90320EFE542
:101B400016480068C0F340600028F2D122E0A06986
:101B5000012800D1E4E51148001D066806F4800163
:101B6000E069814214D106F03F01206A81420FD121
:101B700047F6C0703040616A884209D106F44031AE
:101B8000A06A814204D106F07061E06A814201D00E
:101B90000120C5E50020C3E50000474200380240AF
:101BA00070B504462546681EB0F1807F01D3012040
:101BB0000FE0681E4FF0E02148610F214FF0FF3029
:101BC00001F07EFF00204FF0E021886107200861CE
:101BD000002070BD7047704730B502460B4600BF0D
:101BE00092F83C00012801D1022030BD012082F88A
:101BF0003C0000BF022082F83D0010684468106875
:101C0000816824F070041868044310684460144D1F
:101C10001068A84213D01068B0F1804F0FD0114D5A
:101C20001068A8420BD0104D1068A84207D00F4D85
:101C30001068A84203D00E4D1068A84205D121F0CB
:101C400080015868014310688160012082F83D00DE
:101C500000BF002082F83C0000BF00BFC5E70000C5
:101C6000000001400004004000080040000C00405B
:101C70000040014010B504460CB9012010BD94F895
:101C80003D0028B9002084F83C00204600F00CF804
:101C9000022084F83D00211D206801F085FA012012
:101CA00084F83D000020E9E738B50446194920686A
:101CB000884218D100BF002000901748006840F00B
:101CC0000100154908600846006800F00100009016
:101CD00000BF00BF002201211920FFF78BFB192054
:101CE000FFF778FB15E02068B0F1804F11D100BFFD
:101CF000002000900848001F006840F001000649DD
:101D0000091F08600846006800F00100009000BF4D
:101D100000BF38BD00000140443802400146086859
:101D2000C06840F001000B68D8600868806800F067
:101D30000702062A05D00868006840F001000B6819
:101D40001860002070472DE9F04104460D4600BFA1
:101D500094F83C00012802D10220BDE8F081012066
:101D600084F83C0000BF022084F83D0020688668AB
:101D700026F0770626F47F4620688660286850287B
:101D800033D00CDC202850D004DC00284BD01028A5
:101D900051D149E0302849D040284CD139E0602861
:101DA0002DD0702807D0B0F5805F03D0B0F5005F6C
:101DB00041D10DE040E0D5E902136A68206801F0E6
:101DC00056FA2068866846F077062068866033E019
:101DD000D5E902136A68206801F049FA2068806832
:101DE00040F480402168886026E0EA6869682068DD
:101DF00001F00EFB5021206801F044FA1CE0EA6873
:101E00006968206801F017FB6021206801F03AFA48
:101E100012E0EA686968206801F0FAFA4021206857
:101E200001F030FA08E000BF00BF00BF2968206859
:101E300001F028FA00E000BF00BF012084F83D0057
:101E400000BF002084F83C0000BF00BF85E770475A
:101E500010B5044620680069C0F34000D8B120687E
:101E6000C068C0F34000B0B16FF0020021680861A3
:101E7000012020772068806900F0030018B1204617
:101E8000FFF7E5FF05E0204600F0DCF8204600F013
:101E900079F90020207720680069C0F38000D8B16C
:101EA0002068C068C0F38000B0B16FF00400216802
:101EB0000861022020772068806900F4407018B122
:101EC0002046FFF7C4FF05E0204600F0BBF820469F
:101ED00000F058F90020207720680069C0F3C000A6
:101EE000D8B12068C068C0F3C000B0B16FF008007E
:101EF00021680861042020772068C06900F0030091
:101F000018B12046FFF7A3FF05E0204600F09AF83D
:101F1000204600F037F90020207720680069C0F3E0
:101F20000010D8B12068C068C0F30010B0B16FF0E5
:101F3000100021680861082020772068C06900F43B
:101F4000407018B12046FFF782FF05E0204600F000
:101F500079F8204600F016F9002020772068006903
:101F600000F0010058B12068C06800F0010030B1F5
:101F70006FF0010021680861204600F02BF920680D
:101F80000069C0F3C01058B12068C068C0F3C01029
:101F900030B16FF08000216808612046FFF71AFE1B
:101FA00020680069C0F3801058B12068C068C0F391
:101FB000801030B16FF0400021680861204600F0C9
:101FC0000AF920680069C0F3401058B12068C06861
:101FD000C0F3401030B16FF0200021680861204646
:101FE000FFF7F9FD10BD000010B586B004461421BE
:101FF00001A8FEF756F92068B0F1804F1CD100BF50
:10200000002000900D48006840F001000B49086076
:102010000846006800F00100009000BF00BF0320E8
:10202000019002200290002003900490012005906E
:1020300001A90348FEF7CEFC06B010BD30380240BF
:1020400000000240704770B504460D46164600BFBA
:1020500094F83C00012801D1022070BD012084F8D1
:102060003C0000BF022084F83D0036B1042E1BD096
:10207000082E31D00C2E5ED145E02946206801F0B3
:102080000BF92068806940F00800216888612068A9
:10209000806920F0040021688861206880692969CE
:1020A00008432168886147E02946206801F024F947
:1020B0002068806940F40060216888612068806938
:1020C00020F480602168886120688069296940EA7D
:1020D0000120216888612FE02946206801F040F93D
:1020E0002068C06940F008002168C8612068C069A4
:1020F00020F004002168C8612068C069296908438C
:102100002168C86118E02946206801F05DF920685F
:10211000C06940F400602168C8612068C06920F48B
:1021200080602168C8612068C069296940EA01208F
:102130002168C86100E000BF00BF012084F83D00B5
:1021400000BF002084F83C0000BF00BF85E710B549
:1021500004460CB9012010BD94F83D0028B90020B8
:1021600084F83C00204600F00CF8022084F83D0082
:10217000211D206801F018F8012084F83D0000209E
:10218000E9E770477047000070B504460E4601222B
:102190003146206801F05AF80D492068884201D183
:1021A000012000E0002028B12068406C40F400408D
:1021B000216848642068806800F00705062D05D076
:1021C0002068006840F0010021680860002070BDB0
:1021D0000000014070477047704700002DE9F0474C
:1021E0000446206805682068C668206847694FF083
:1021F0000008C14605F00F08B8F1000F0AD105F03C
:10220000200038B106F0200020B1204601F051F93D
:10221000BDE8F087B8F1000F72D007F0010018B9DF
:1022200006F4907000286BD005F0010030B106F480
:10223000807018B1E06B40F00100E06305F004002D
:1022400030B107F0010018B1E06B40F00200E0632C
:1022500005F0020030B107F0010018B1E06B40F06A
:102260000400E06305F0080048B106F0200010B952
:1022700007F0010018B1E06B40F00800E063E06B8C
:1022800070B305F0200028B106F0200010B1204600
:1022900001F00FF920684069C0F38019E06B00F08D
:1022A000080010B9B9F1000F23D0204601F0E1F881
:1022B0002068406900F04000402816D1206840693D
:1022C00020F0400021684861606B50B11748616B95
:1022D0000865606BFEF756FB10B1606B016D8847B7
:1022E0000CE02046FFF778FF08E02046FFF774FF78
:1022F00004E02046FFF770FF0020E06388E7FFE777
:1023000005F0800030B106F0800018B1204601F0E1
:1023100017FB7DE705F0400030B106F0400018B132
:10232000204601F0B6F873E700BF71E75F3400089C
:1023300010B504460CB9012010BDA06900B100E041
:1023400000BF94F8390028B9002084F838002046EE
:1023500000F028F8242084F839002068C06820F4B0
:1023600000502168C860204601F0F6F82068006936
:1023700020F49040216808612068406920F02A001C
:10238000216848612068C06840F400502168C86036
:102390000020E063202084F8390084F83A0000200F
:1023A000CAE7000010B586B00446142101A8FDF765
:1023B00078FF1F492068884238D100BF0020009074
:1023C0001C48006840F010001A4908600846006880
:1023D00000F01000009000BF00BF00BF0020009080
:1023E00014481438006840F001001249143908609C
:1023F0000846006800F00100009000BF00BF4FF4E5
:10240000C0600190022002900020039003200490FD
:102410000720059001A90848FEF7DCFA00220221F6
:102420002520FEF7E7FF2520FEF7D4FF06B010BDFC
:1024300000100140443802400000024070472DE97E
:10244000F84304460D4616461F464FF0000994F81F
:10245000390020285DD105B116B90120BDE8F88307
:1024600000BF94F83800012801D10220F6E70120CE
:1024700084F8380000BF0020E063212084F8390090
:10248000FEF792FB8146A684E68400BF002084F814
:10249000380000BF2BE0E08C401EE084A068B0F55F
:1024A000805F16D14B46002280212046009701F024
:1024B0007BFA08B10320D1E7A846B8F80000C0F3C2
:1024C000080021684860206908B9AD1C0FE06D1C48
:1024D0000DE04B46002280212046009701F064FA6F
:1024E00008B10320BAE715F8010B21684860E08CB9
:1024F0000028D0D14B46002240212046009701F011
:1025000053FA08B10320A9E7202084F839000020FD
:10251000A4E70220A2E7704700BFFEE70146086873
:102520004069C0F38020B0B16FF480600A685061E8
:1025300000200863202081F83D00002081F83E0043
:10254000086C40F00400086400BF002081F83C00E3
:1025500000BF012070470020FCE700002DE9F84390
:1025600004460F4615469946DDE90886206800684E
:1025700040F48060216808602068006840F4807042
:1025800021680860434600224FF001112046009662
:1025900000F032F960B12068006800F48070B0F596
:1025A000807F02D14FF4007020640320BDE8F883DF
:1025B00007F0FE0021680861334642463E49204646
:1025C00000F05DF908B10120F0E700BF00200090A5
:1025D00020684069009020688069009000BF00BFBB
:1025E00032464146204600F0ECF950B1206C0428F8
:1025F00005D12068006840F400702168086001205F
:10260000D4E7B9F1010F03D1E8B22168086117E0FE
:10261000C5F307202168086132464146204600F094
:10262000D0F950B1206C042805D12068006840F42E
:102630000070216808600120B8E7E8B221680861ED
:1026400032464146204600F0BCF950B1206C0428C7
:1026500005D12068006840F40070216808600120FE
:10266000A4E72068006840F4807021680860434651
:1026700000224FF001112046009600F0BDF858B13D
:102680002068006800F48070B0F5807F02D14FF4BC
:1026900000702064032089E7F8B240F0010021684F
:1026A0000861334642460449204600F0E8F808B184
:1026B00001207BE7002079E7020001002DE9F843C3
:1026C0000446884615469946DDE908672068006893
:1026D00040F4807021680860334600224FF00111F9
:1026E0002046009700F088F860B12068006800F488
:1026F0008070B0F5807F02D14FF400702064032019
:10270000BDE8F88308F0FE00216808613B463246C8
:102710002149204600F0B3F808B10120F0E700BFDE
:102720000020009020684069009020688069009037
:1027300000BF00BF3A463146204600F042F950B192
:10274000206C042805D12068006840F400702168DE
:1027500008600120D4E7B9F1010F03D1E8B2216884
:10276000086117E0C5F30720216808613A46314641
:10277000204600F026F950B1206C042805D12068CD
:10278000006840F40070216808600120B8E7E8B2F2
:10279000216808610020B3E70200010070B504461B
:1027A0000D46164620E02046FFF7B8FE08B101208E
:1027B00070BD681CC0B1FEF7F7F9801BA84200D8B5
:1027C00095B900202063202084F83D00002084F883
:1027D0003E00206C40F02000206400BF002084F800
:1027E0003C0000BF0120E3E720684069C0F380009F
:1027F0000028D8D00020DBE72DE9F04104460D4643
:1028000017461E46DDF818801CE0701CD0B1FEF79C
:10281000CBF9A0EB0800B04200D89EB9002020639D
:10282000202084F83D00002084F83E00206C40F019
:102830002000206400BF002084F83C0000BF01207D
:10284000BDE8F081C5F3074001280AD1206840693E
:10285000A9B20840A9B2884201D101200BE00020B2
:1028600009E020688069A9B20840A9B2884201D174
:10287000012000E00020B842C7D00020E0E72DE9A9
:10288000F04104460D4616461F463DE0206840696B
:10289000C0F38020E8B12068006840F4007021682F
:1028A00008606FF480602168486100202063202068
:1028B00084F83D00002084F83E00206C40F00400C5
:1028C000206400BF002084F83C0000BF0120BDE868
:1028D000F081701CC0B1FEF767F9C01BB04200D890
:1028E00096B900202063202084F83D00002084F861
:1028F0003E00206C40F02000206400BF002084F8DF
:102900003C0000BF0120E2E7C5F3074001280AD1DF
:1029100020684069A9B20840A9B2884201D10120CB
:102920000BE0002009E020688069A9B20840A9B244
:10293000884201D1012000E000200028A6D000201C
:10294000C5E770B504460D46164632E0206840697A
:10295000C0F30010A0B16FF01000216848610020A2
:102960002063202084F83D00002084F83E00206C85
:10297000206400BF002084F83C0000BF012070BD2F
:10298000FEF712F9801BA84200D895B900202063F9
:10299000202084F83D00002084F83E00206C40F0A8
:1029A0002000206400BF002084F83C0000BF01200C
:1029B000E5E720684069C0F380100028C6D00020F9
:1029C000DDE770B504460D46164620E02046FFF7C9
:1029D000A5FD08B1012070BD681CC0B1FEF7E4F888
:1029E000801BA84200D895B900202063202084F8DD
:1029F0003D00002084F83E00206C40F02000206460
:102A000000BF002084F83C0000BF0120E3E72068FD
:102A10004069C0F3C0100028D8D00020DBE70000D8
:102A2000FEB504460D4616461F4640F6FF7061008F
:102A300001232A46CDE9007602900248FEF7A2F96A
:102A40000020FEBD30010020FEB504460D461646AE
:102A50001F4640F6FF70610001232A46CDE900764B
:102A600002900248FEF708FB0020FEBD3001002066
:102A70002DE9FC4104460D4616466A4606214320D0
:102A800000F01EF80746BFB99DF801009DF8001040
:102A900040EA012000B220809DF803009DF802105A
:102AA00040EA012000B228809DF805009DF804103E
:102AB00040EA012000B230803846BDE8FC810000C9
:102AC000FEB504460E46154640F6FF700123224629
:102AD000D121CDE9005602900248FEF753F90020BB
:102AE000FEBD00003001002008B500BF00200090AE
:102AF0001D48006840F004001B4908600846006853
:102B000000F00400009000BF00BF00BF0020009054
:102B10000846006840F0800008600846006800F041
:102B20008000009000BF00BF00BF0020009008465A
:102B3000006840F0010008600846006800F00100ED
:102B4000009000BF00BF00BF002000900846006852
:102B500040F0020008600846006800F002000090A3
:102B600000BF00BF08BD00003038024010B50B4860
:102B70000B4908600B484860002109488160C1602A
:102B80004FF480410161002141618161C1610162B5
:102B9000FEF710F808B1FDF7F2FE10BD005400403A
:102BA000DC000020801A060010B50B480B490860B5
:102BB0000B484860002109488160C1604FF48041A2
:102BC0000161002141618161C1610162FDF7F2FF94
:102BD00008B1FDF7D4FE10BD0058004030010020C0
:102BE000801A060000B587B000200390049005907D
:102BF00006900190029015481549086063204860CE
:102C000000211348816040F2E731C1600021016179
:102C100041618161FFF72EF808B1FDF7B0FE4FF476
:102C20008050039003A90A48FFF78DF808B1FDF71B
:102C3000A6FE00200190029001A90548FEF7CCFFF6
:102C400008B1FDF79CFE07B000BD00000000014088
:102C50008401002000B58DB0002009900A900B90EF
:102C60000C90079008901C216846FDF71AFB4FF066
:102C70008040234908601820486000212048816076
:102C80003121C160002101618161FEF7F3FF08B1CC
:102C9000FDF775FE4FF48050099009A91848FFF719
:102CA00052F808B1FDF76BFE1548FFF750FA08B16E
:102CB000FDF765FE00200790089007A91048FEF771
:102CC0008BFF08B1FDF75BFE6020009000200190B3
:102CD00002900490002269460948FFF7B4F908B150
:102CE000FDF74DFE042269460548FFF7ACF908B12F
:102CF000FDF745FE0248FFF777F90DB000BD000073
:102D0000C401002010B50B480B4908604FF4E130B6
:102D10004860002108488160C16001610C21416167
:102D200000218161C161FFF703FB08B1FDF727FEB8
:102D300010BD0000001001400402002000BFFEE7AB
:102D400010B5264890ED000A254880ED000A90ED68
:102D5000000AF7EE000AB4EEE00AF1EE10FA08DD20
:102D600090ED000AF3EE010A30EE200A80ED000A31
:102D700011E01B4890ED000AFFEE000AB4EEE00AF5
:102D8000F1EE10FA07D290ED000AF3EE010A30EEF0
:102D9000600A80ED000A124890ED000ADFED110A8A
:102DA000B4EEE00AF1EE10FA03DD9FED0E0A80EDBD
:102DB000000A0B4890ED000ADFED0B0AB4EEE00AC2
:102DC000F1EE10FA03D29FED080A80ED000A0448E4
:102DD00090ED000A00F042F910BD000080000020D4
:102DE000840000200000C8420000C8C210B50021C5
:102DF0000748FFF7C9F904210548FFF7C5F9002086
:102E000003490968486302490968886310BD0000E6
:102E1000C401002000BFFEE770B5002415E004F1F6
:102E2000B001C8B200F0F0F8002000F0EDF810207A
:102E300000F0EAF8002504E0002000F0F9F8681C32
:102E4000C5B2802DF8DB601CC4B2082CE7DB70BD76
:102E500010B5C820FDF7AAFD00F0E6FD10BD70B565
:102E600004460D4605F1B001C8B200F0CDF81021BE
:102E700041EA141000F0C8F804F00F0000F0C4F8A4
:102E800070BD00002DE9F04707460E469046994672
:102E900000250024A8F12000C5B27F2F02DD002705
:102EA000B01CC6B2B9F1100F22D131463846FFF737
:102EB000D6FF002407E004EB0511174A505C00F030
:102EC000B7F8601CC4B2082CF5DB701CC1B23846E0
:102ED000FFF7C5FF002408E004EB051108310E4A96
:102EE000505C00F0A5F8601CC4B2082CF4DB11E0C3
:102EF00031463846FFF7B3FF002409E005EB4501F2
:102F0000064A02EB4101085D00F092F8601CC4B271
:102F1000062CF3DBBDE8F087D2730008AA71000825
:102F20002DE9FF5F0646174698460E9D4FF0000AB2
:102F30000024002F0EDAAB4605EBDB71491001FBD4
:102F40000461C8B22B462D220199FFF79BFF7F42F7
:102F5000601CC4B237E0A8EB0400401EC1B20A20D6
:102F600004F040F8B7FBF0F00A21B0FBF1F201FBEE
:102F70001209BAF1000F15D1A8F10100A04211DD2C
:102F8000B9F1000F0CD1AB4605EBDB71491001FB29
:102F90000461C8B22B4620220199FFF773FF10E0AD
:102FA0004FF0010AAB4605EBDB71491001FB0461F0
:102FB000C8B209F13001CAB22B460199FFF762FF8E
:102FC00000BF601CC4B24445C5DBBDE8FF9F2DE9CE
:102FD000F04104460F461546984600260FE0AA5DCC
:102FE000434639462046FFF74DFF04F10800C4B2BE
:102FF000782C02DD0024B81CC7B2701CC6B2A85DD4
:103000000028ECD1BDE8F08101B584B04FF48070A8
:10301000012104AA0B46CDE900210290002278216B
:103020000248FEF729F805B000BD0000DC000020D2
:1030300001B584B04FF48070012104AA0B46CDE99C
:1030400000210290402278210248FEF715F805B0D1
:1030500000BD0000DC00002070477047B5EEC00ADC
:10306000F1EE10FA0FD2F1EE400AB0EE600AFDEE7A
:10307000C00A10EE900A0A490968886300200849CE
:10308000096848630AE0FDEEC00A10EE900A0449A0
:103090000968486300200249096888637047000096
:1030A000C401002010B5FEF721F910BD00B593B0A2
:1030B000302107A8FDF7F5F8142102A8FDF7F1F873
:1030C00000BF002001902348006840F08050214953
:1030D00008600846006800F08050019000BF00BF03
:1030E00000BF002001901C48006840F440401A498D
:1030F00008600846006800F44040019000BF00BF2F
:10310000012007900004089002200D9041050E91C7
:103110000C210F9160211091022111910421129133
:1031200007A8FEF7F9FA08B1FDF729FC0F20029075
:1031300002200390002004904FF48050059000205E
:103140000690032102A8FEF7A7F908B1FDF717FCC6
:1031500013B000BD403802400070004005480068D0
:1031600040F47000034908604FF000600149803965
:103170000860704788ED00E010B5074A0749084825
:1031800002F03EFEFDF784FBFDF7C6FBFFF7D8FD1E
:103190000448FEF75DFE10BD08000020040000207A
:1031A000000000208401002010B50268204B9842E6
:1031B0000BD0B0F1804F08D01E4B984205D01E4B6B
:1031C000984202D01D4B984203D122F070024B6806
:1031D0001A43174B984214D0B0F1804F11D0154BC1
:1031E00098420ED0144B98420BD0144B984208D002
:1031F000134B984205D0134B984202D0124B984281
:1032000003D122F44072CB681A4322F080034C6948
:1032100043EA040202608B68C3620B688362044B5A
:10322000984201D10B6903630123436110BD000083
:10323000000001400004004000080040000C004075
:1032400000400140004401400048014030B501F019
:103250001F05012404FA05F3046A9C430462046A0E
:1032600001F01F0502FA05F52C43046230BD30B5AC
:103270000C46816821F47F4142EA03252543294316
:10328000816030BD0A46816821F0700142F0070379
:10329000194381607047000030B5056A25F00105CB
:1032A0000562026A4368846924F0700424F0030410
:1032B0000D682C4322F002028D682A430D4DA8426E
:1032C00006D100BF22F00802CD682A4322F0040292
:1032D000084DA84207D123F4807323F400734D698D
:1032E0002B438D692B43436084614D6845630262C3
:1032F00030BD00000000014030B5056A25F0100522
:103300000562026A4368846924F4E04424F440744A
:103310000D6844EA052422F020028D6842EA051275
:103320000E4DA84207D100BF22F08002CD6842EACC
:10333000051222F04002094DA84209D123F480630E
:1033400023F400634D6943EA85038D6943EA8503ED
:10335000436084614D688563026230BD00000140B6
:1033600030B5056A25F480750562026A4368C46950
:1033700024F0700424F003040D682C4322F400723E
:103380008D6842EA05220F4DA84207D100BF22F402
:103390000062CD6842EA052222F48062094DA8420B
:1033A00009D123F4805323F400534D6943EA0513F4
:1033B0008D6943EA05134360C4614D68C5630262C9
:1033C00030BD00000000014030B5056A25F480558D
:1033D0000562036A4468C26922F4E04222F4407242
:1033E0000D6842EA052223F400538D6843EA053351
:1033F000064DA84204D124F480444D6944EA851462
:103400004460C2614D680564036230BD0000014044
:1034100030B50B461446026A056A25F001050562BF
:10342000816921F0F00141EA041122F00A021A43F5
:103430008161026230BD30B50B461446056A25F045
:10344000100505628169026A21F4704141EA043184
:1034500022F0A00242EA03128161026230BD70B51F
:103460000546AC6B0020E085E0842046FEF7B4FE04
:1034700070BD0168C96821F490710268D16001686B
:10348000496921F0010102685161202180F83A1058
:10349000704710B504462068C06820F040002168DD
:1034A000C860202084F839002046FFF734F8002057
:1034B00010BD70B5044694F83A0022284AD1A0689D
:1034C000B0F5805F13D1A56A206940B920684068D3
:1034D000C0F308002880A06A801CA06219E0206860
:1034E0004068C0B22880A06A401CA06211E0206938
:1034F00038B920684068C1B2A26A501CA06211703D
:1035000007E02068406800F07F01A26A501CA062BA
:103510001170E08D401E80B2E085C8B92068C06897
:1035200020F020002168C8602068C06820F4807006
:103530002168C8602068406920F001002168486166
:10354000202084F83A002046FEF778FF002070BD66
:103550000020FCE70220FAE72DE9F84F0446206836
:10356000006920F44050E16808432168086121693E
:10357000A068084361690843E16908430090206836
:10358000C06849F20C618843009908432168C8600B
:103590002068406920F44070A169084321684861AF
:1035A000E069B0F5004F75D1E3492068884203D047
:1035B000E249206888426FD1FEF746F88146022032
:1035C0006168A0FB01510B461920A9FB00712A4636
:1035D0003846FCF7FDFD6421B0FBF1F04FEA001A1C
:1035E00002206168A0FB01510B461920A9FB007164
:1035F0002A463846FCF7ECFD074602206168A0FB2E
:1036000001510B461920A9FB00B12A465846FCF788
:10361000DFFD6421B0FBF1F000EBC00101EB001015
:10362000A7EB8000322101EBC0006421B0FBF1F078
:1036300000F0F8000AEB400A02206168A0FB01518B
:103640000B461920A9FB00712A463846FCF7C0FD3D
:10365000074602206168A0FB01510B461920A9FB17
:1036600000B12A465846FCF7B3FD6421B0FBF1F0E7
:1036700000EBC00101EB0010A7EB8000322101EB51
:10368000C0006421B0FBF1F000F007005044216855
:1036900088604FE16EE0FFE7FDF7C6FF814602203C
:1036A0006168A0FB01510B461920A9FB00712A4655
:1036B0003846FCF78DFD6421B0FBF1F04FEA001AAB
:1036C00002206168A0FB01510B461920A9FB007183
:1036D0002A463846FCF77CFD074602206168A0FBBD
:1036E00001510B461920A9FB00B12A465846FCF7A8
:1036F0006FFD6421B0FBF1F000EBC00101EB0010A5
:10370000A7EB8000322101EBC0006421B0FBF1F097
:1037100000F0F8000AEB400A02206168A0FB0151AA
:103720000B461920A9FB00712A463846FCF750FDCC
:10373000074602206168A0FB015003461920A9FB3F
:1037400000B12A465846FCF743FD6421B0FBF1F076
:1037500000EBC00101EB0010A7EB8000322101EB70
:10376000C0006421B0FBF1F000F007005044216874
:103770008860DFE070492068884203D06F49206884
:1037800088426BD1FDF760FF814604206168A0FB91
:1037900001510B461920A9FB00712A463846FCF757
:1037A00017FD824604206168A0FB01510B461920D9
:1037B000A9FB00712A463846FCF70AFD6421B0FBDC
:1037C000F1F000EBC00101EB0010AAEB8000322108
:1037D00001EB00106421B0FBF1F000F0F00A0420CE
:1037E0006168A0FB015003461920A9FB00712A461D
:1037F0003846FCF7EDFC6421B0FBF1F00AEB001A4F
:1038000004206168A0FB01510B461920A9FB00713F
:103810002A463846FCF7DCFC074604206168A0FB1A
:10382000015003461920A9FB00B12A465846FCF76F
:10383000CFFC6421B0FBF1F000EBC00101EB001004
:10384000A7EB8000322101EB00106421B0FBF1F006
:1038500000F00F005044216888606BE0FDF7E4FE43
:10386000814604206168A0FB015003461920A9FB92
:1038700000712A463846FCF7ABFC8246042061689A
:10388000A0FB015003461920A9FB00712A463846C7
:10389000FCF79EFC6421B0FBF1F000EBC00101EBF2
:1038A0000010AAEB8000322101EB00106421B0FB74
:1038B000F1F000F0F00A04206168A0FB015003461B
:1038C0001920A9FB00712A463846FCF781FC6421C7
:1038D000B0FBF1F00AEB001A04206168A0FB017054
:1038E00003461920A9FB005001463A462846FCF73A
:1038F0006FFC074604206168A0FB015003461920B5
:10390000A9FB00B12A465846FCF762FC6421B0FBD3
:10391000F1F000EBC00101EB0010A7EB80003221B9
:1039200001EB00106421B0FBF1F000F00F005044F7
:1039300021688860BDE8F88F001001400014014044
:10394000014691F8390021282CD18868B0F5805FB4
:103950000FD10A6A1088C0F308000B685860086924
:1039600018B9086A801C086209E0086A401C0862ED
:1039700005E00B6A581C086218780B685860C88C00
:10398000401E80B2C88458B90868C06820F0800022
:103990000B68D8600868C06840F040000B68D860C9
:1039A000002070470220FCE72DE9F04104460D4657
:1039B00017469846069E21E0701CF8B12EB1FDF71F
:1039C000F3F8A0EB0800B04218D92068C06820F4D2
:1039D000D0702168C8602068406920F0010021682B
:1039E0004861202084F8390084F83A0000BF0020A4
:1039F00084F8380000BF0320BDE8F081206800682B
:103A00002840A84201D1012000E00020B842D3D0D4
:103A10000020F1E710B50248FEF7E0FB10BD000002
:103A20000402002000BFFEE73EB5002400BF0FE007
:103A30004FF480710122084820441346CDE901214A
:103A40000090002278210548FDF716FB601CC4B2E7
:103A50001B2CEDDB3EBD000048000020DC000020F8
:103A60000FB4054B10B503A9044A029800F016FDE7
:103A700010BC5DF814FB000021560008D4000020A3
:103A800003B401984100009850EAC12018BF0420F7
:103A90004A0D18BF40F0010040F2FF72B2EB515FD7
:103AA00008BF40F00200012808BF052002B070479F
:103AB00002480068C0F30220704700000CED00E0EF
:103AC00010B5002804DB0A07130E054A135406E05C
:103AD0000A07140E034A00F00F031B1FD45410BD35
:103AE00000E400E018ED00E070B5C1482DED020BD8
:103AF0002DED0E8B82B0119D25F000449FEDBEDBB5
:103B00009FEDBFEB84423EDBA4F140511098A1F140
:103B10007F6108430FD0BC48844202DC28D1109852
:103B200030B39DED100B02B0BDEC0E8B02B0BDE8C2
:103B3000704000F069BC9DED100B53EC1D2B51EC57
:103B4000100BFCF76DFC9DED100B41EC180B53ECCA
:103B50001E2B51EC100BFCF763FC53EC182BFCF7FD
:103B6000B8FB41EC100B02B0BDEC0E8B02B070BD87
:103B7000012000F08DFC02B0BDEC0E8B02B0BDE860
:103B8000704000F055BCA1489FEDA18B844256DAED
:103B90009DED100BB4F1795F0ADA51EC100BFFF7D1
:103BA0006FFF042808BF00F053FC9DED100BDAE70F
:103BB00053EC102B51EC100BFCF732FC41EC190BC1
:103BC00095480621B0EE490AF0EE690A784400F003
:103BD0009FFB53EC192B51EC100BFCF721FC41EC33
:103BE0001A0B8E48B0EE490AF0EE690A04217844B7
:103BF00000F08EFB53EC192B51EC100BFCF710FC72
:103C000053EC182BFCF765FB41EC100B51EC1A0B35
:103C100053EC102BFCF776FCCDE900019DED000B79
:103C200053EC102B9DED100B51EC100BFCF7F8FB37
:103C30009DED101B53EC112BFCF74BFBD2E09DEDDF
:103C4000100B51EC100B01F0DFFC53EC182BFCF7C0
:103C5000E4FB9FED730BCDE9000153EC102B9DEDC0
:103C6000000B51EC100BFCF7DBFB41EC190B6E4821
:103C70000621B0EE490AF0EE690A784400F048FBEC
:103C800053EC192B51EC100BFCF7CAFB41EC1B0B4E
:103C90006648B0EE490AF0EE690A0421784400F063
:103CA00037FB53EC192B51EC100BFCF7B9FB53EC21
:103CB000182BFCF70EFB41EC1C0B51EC190B03F01D
:103CC00031FA41EC180B5A489FED5BABA04222DC65
:103CD00053EC1C2B51EC1B0BFCF714FCCDE9000141
:103CE0009DED000B51EC180B53EC102BFCF798FBDF
:103CF00053EC182BFCF7EDFA53EC1A2BFCF790FB66
:103D000053EC1D2BFCF786FB53EC1E2BFCF785FBBD
:103D100041EC100B5FE08DED008B002000909DEDDD
:103D2000000B51EC180B53EC102BFCF7D2FA9DED65
:103D3000000B41EC1E0B53EC102B51EC100BFCF75D
:103D40006FFB53EC192BFCF768FB53EC1E2BFCF7B5
:103D5000D9FB41EC190B53EC1C2B51EC1B0BFCF762
:103D6000D1FB41EC1B0B53EC1A2B51EC190BFCF75C
:103D700057FB53EC1D2BFCF750FB41EC190B53EC9C
:103D80001A2B51EC180BFCF74BFB53EC1B2BFCF7DD
:103D900047FB53EC192BFCF73DFB9DED000B41EC71
:103DA000180B53EC1A2B51EC100BFCF739FB9FED61
:103DB000249B53EC192BFCF730FB41EC100B51EC1E
:103DC000180B53EC102BFCF725FB53EC192BFCF7CD
:103DD00024FB41EC100B002D3FF7C5AE51EC100B4E
:103DE00081F0004141EC100BBDE600000000000036
:103DF0000000F03F00000000075C143326A6913C51
:103E0000182D4454FB21F93F0000F07F0000E03FF3
:103E1000000000000000F03F404A00004E4A000051
:103E2000000000000000E03F92490000A0490000AF
:103E30003333EF3F000000000000000000000040AE
:103E4000182D4454FB21E93F70B59B482DED020B22
:103E50002DED068B079D25F00044A04218DC974805
:103E6000844202DC0AD1069840B19DED060BBDEC00
:103E7000068B02B0BDE8704000F0C6BA002DCCBF82
:103E80009FED8F0B9FED900BBDEC068B02B070BDCC
:103E90008F48A04215DD8F48A042D8BF4FF0FF34B5
:103EA00058DD9DED060B51EC100BFFF7E9FD0428E2
:103EB00008BF00F0CDFA9DED060BBDEC068B02B0FD
:103EC00070BD9DED060B51EC100B01F09DFBCDE993
:103ED000060181489FED828BA0423CDD8248A042D2
:103EE0001FDD00249FED82AB9DED060B53EC1A2BDA
:103EF00051EC100BFCF7EDF99DED060B41EC190BA5
:103F000053EC1A2B51EC100BFCF78AFA53EC182BDC
:103F1000FCF780FA53EC192BFCF7F4FACDE9060113
:103F200049E09DED060B012453EC182B51EC100BCE
:103F3000FCF7CFF99DED060B41EC190B53EC182B58
:103F400051EC100BFCF766FA53EC192BFCF7DAFA7C
:103F5000CDE906012FE06848A0421FDD02249FED55
:103F6000689B9DED060B53EC192B51EC100BFCF7E5
:103F700057FA53EC182BFCF7ACF99DED060B41EC0E
:103F8000180B53EC192B51EC100BFCF743FA53ECC4
:103F9000182BFCF7B7FACDE906010CE09DED060BF6
:103FA000032453EC102B9FED580B51EC100BFCF736
:103FB000A9FACDE906019DED060B53EC102B51EC4F
:103FC000100BFCF72DFA41EC180B53EC182BFCF7F7
:103FD00027FA41EC190B4E480621B0EE490AF0EEE3
:103FE000690A784400F094F953EC182B51EC100B4B
:103FF000FCF716FA41EC180B4648B0EE490AF0EE11
:10400000690A0521784400F083F953EC192B51EC2F
:10401000100BFCF705FA41EC100B51EC180B53ECAC
:10402000102B002C0EDAFCF754F99DED061B53EC17
:10403000112BFCF7F5F99DED061B53EC112BFCF74A
:10404000ECF935E0FCF745F99DED061B53EC112B1F
:10405000FCF7E6F941EC100B2F48784400EBC40064
:1040600090ED001B51EC100B53EC112BFCF7D2F927
:104070009DED061B53EC112BFCF7CCF941EC100B1A
:104080002648784400EBC40090ED001B51EC100B67
:1040900053EC112BFCF7C1F941EC100B002DA2BF22
:1040A000BDEC068B02B070BD51EC100B81F00041ED
:1040B00041EC100B01E70000000010440000F07F0D
:1040C000182D4454FB21F93F182D4454FB21F9BF0E
:1040D0000000DC3F0000203E0000F33F0000000035
:1040E000000000000000F03F0000E63F000000007C
:1040F00000000000000000400080034000000000BD
:10410000000000000000F83F000000000000F0BFC9
:10411000E24600009846000022460000DA45000012
:1041200070B56B4E2DED040B2DED028B82B0DDF8DA
:104130001CC0DDE905235C422CF000411C4341EA30
:10414000D474049D22F00040B44205D86C422C4344
:1041500040EAD474B4420BD99DED061B9DED040BCF
:1041600002B0BDEC028B04B0BDE8704000F056B95F
:10417000ACF14054A4F17F641C430BD0022404EA48
:10418000AC7444EAD27405439FED538B9FED542BDE
:1041900007D015E09DED040B51EC100B00F010FC66
:1041A00042E0002C11BF012C9DED040B02B0BDECD0
:1041B000028B04BF04B070BD022C38D0032C3BD05E
:1041C0000B439FED491B9FED4A0B0AD0B14218D11A
:1041D000B04209D121F0804120F080400791059044
:1041E0000FE0002A15DA10E0434B7B44002C08BF97
:1041F00093ED000B0DD0012C10D0022C17D0032C06
:104200001AD0B0421DD1002A03DAB0EE410AF0EE16
:10421000610A02B0BDEC028B04B070BD93ED000BDF
:1042200051EC100B81F0004141EC100BF1E7B0EEC6
:10423000480AF0EE680AECE7B0EE420AF0EE620AD5
:10424000E7E7401A00153C28C8BF8DED000B19DCCC
:10425000BCF1000FBEBF10F13C0F9FED290B8DED9F
:10426000000B0FDB9DED060B53EC102B9DED040BAB
:1042700051EC100BFCF746F901F0C6F900F0A0FB79
:10428000CDE90001002C08BF9DED000BC1D0012C31
:1042900010D0022C9FED1C0B53EC102B9DED000B4E
:1042A00051EC100B0DD0FCF7B5F853EC182BFCF7C4
:1042B000B1F8B9E7019880F0004001909DED000B46
:1042C000A7E7FCF7A7F853EC182BFCF7A6F8ABE729
:1042D0000000F07F00000000182D4454FB2109402D
:1042E000182D4454FB2109C0182D4454FB21F9BF5B
:1042F000182D4454FB21F93F0A450000000000003E
:104300000000000000000000075C143326A6A13C5A
:1043100070B504462DED028B4D1E00EBC500B0EECE
:10432000408AF0EE608A90ED000B35F0060017D061
:1043300053EC182B51EC100BFCF772F841EC100BFE
:104340006D1E04EBC50090ED001B51EC100B53ECFF
:10435000112BFBF7BEFF41EC100B35F00600E7D147
:10436000022D36D0042D1CD0062D1CBFBDEC028BB7
:1043700070BD53EC182B51EC100BFCF751F894ED79
:104380000A1B53EC112BFBF7A4FF53EC182BFCF783
:1043900047F894ED081B53EC112BFBF79AFF41EC07
:1043A000100B53EC182B51EC100BFCF739F894ED73
:1043B000061B53EC112BFBF78CFF53EC182BFCF76F
:1043C0002FF894ED040B53EC102BFBF782FF41EC1C
:1043D000100B53EC182B51EC100BFCF721F894ED5B
:1043E000021B53EC112BFBF774FF53EC182BFCF75B
:1043F00017F894ED001B53EC112BFBF76AFFBDEC93
:10440000028B41EC100B70BD10B553EC102B51EC2E
:10441000100BFBF75EFF41EC100B10BD10B553EC19
:10442000112B51EC100BFBF754FF41EC100B10BD9E
:104430009FED050B10B553EC102B51EC100BFCF756
:1044400061F841EC100B10BD0000000000000000FE
:104450009FED050B10B553EC102B51EC100BFBF737
:10446000DFFF41EC100B10BD000000000000001049
:1044700002E008C8121F08C1002AFAD1704770472D
:10448000002001E001C1121F002AFBD1704700008B
:104490000149086070470000D80000202DE9FF4F57
:1044A0008DB00F460546002606E025280BD0DDE935
:1044B0000F1290476D1C761C28780028F5D111B09A
:1044C0003046BDE8F08F0024A246A1460122EC4907
:1044D00000E0044315F8013F203B02FA03F00842D4
:1044E000F7D128782A2810D06FF02F022878A0F171
:1044F0003001092914D80AEB8A0102EB410144F08A
:10450000020400EB010A6D1CF0E701CF5FEA000A2C
:1045100003D544F40054CAF1000A44F002046D1CAF
:1045200028782E2817D115F8010F44F004042A2802
:104530000ED06FF02F022878A0F1300109290AD897
:1045400009EB890102EB410100EB01096D1CF2E767
:1045500057F8049B6D1C28786C280FD006DC4C287B
:1045600017D068280DD06A2814D104E0742810D020
:104570007A280FD10DE044F400140AE044F48014CA
:1045800001E044F440146978814202D104F58014BA
:104590006D1C6D1C2A786E2A1FD00CDC632A31D06A
:1045A00004DC002A8BD0582A11D1A3E0642A68D0F9
:1045B000692A0CD165E0732A2ED004DC6F2A73D0EF
:1045C000702A04D19BE0752A6FD0782A6ED01046ED
:1045D000DDE90F129047761C50E1C4F30250022827
:1045E00006D0032809D0042801CF09D0066045E190
:1045F00001CFF117C0E9006140E101CF06803DE144
:1046000006703BE117F8040B8DF8000000208DF8D0
:104610000100EB46012003E057F804BB4FF0FF30E8
:1046200061074FF0000102D40DE008F10101884656
:1046300049450FDA8045F8DB1BF808100029F4D152
:1046400008E008F1010188468142FADB1BF80810F6
:104650000029F6D1DDE90F23AAEB080081462146A7
:1046600000F036F9304400EB080604E0DDE90F12F3
:104670001BF8010B9047B8F10108F7D221464846D4
:10468000F7E00A21C4F302534FF0000B0891022B0C
:1046900004D001CFC117032B09D00AE0FF1D27F07A
:1046A0000707F7E8020108E032E01FE020E000B26F
:1046B000C117042B01D140B2C117031E71F10003D1
:1046C00007DA4FF0000CD0EB0C006CEB01012D234E
:1046D00002E0230504D52B238DF82430012303E0C9
:1046E000E30701D02023F7E7984658E00A2110E0BD
:1046F00010210EE010204FF0000B08900CE010216C
:104700004FF0000B44F004044FF00809089103E057
:1047100008214FF0000B0891C4F30253022B04D080
:1047200001CF0021032B06D006E0FF1D27F007076D
:10473000F7E8020103E080B2042B00D1C0B24FF0D1
:10474000000823072BD5702A07D0DDF820C08CF095
:10475000100C5CEA0B0C05D00EE040238DF82430E1
:10476000012308E050EA010306D030238DF82430FD
:104770008DF8252002239846DDF820C08CF0080C27
:104780005CEA0B0C0BD150EA010301D1630706D59B
:1047900030238DF824304FF00108A9F10109582A7F
:1047A00004D038A20B9208AA0A920BE03AA2F9E7C9
:1047B0005B46089AFBF70CFD0B9B9B5C0A9A521E0A
:1047C0000A92137050EA0102F2D10A98ADEB000090
:1047D00000F1200B600702D524F4803401E04FF093
:1047E0000109D94502DDA9EB0B0000E0002000EB38
:1047F0000B0141440890AAEB010AE00306D4DDE96D
:104800000F232146504600F063F806444FF000099C
:1048100008E009A911F80900DDE90F12904709F134
:104820000109761CC145F4DBE0030CD5DDE90F235B
:104830002146504600F04CF8064404E0DDE90F1232
:1048400030209047761C0899481E08900029F5DC16
:1048500008E00A980A990078491C0A91DDE90F12CC
:104860009047761CBBF10001ABF1010BF1DC214656
:104870005046DDE90F2300F019F806446D1C1BE6D5
:104880000928010030313233343536373839616226
:1048900063646566000000003031323334353637EA
:1048A0003839414243444546000000002DE9F041BB
:1048B000044600251E461746880404D405E0394600
:1048C0002020B0476D1C641EF9D52846BDE8F08154
:1048D0002DE9F041044600251E469046C80301D547
:1048E000302700E02027880404D505E041463846FB
:1048F000B0476D1C641EF9D52846BDE8F081000064
:10490000F0B52DED028B83B006460F4600256846B4
:1049100000F094FE002447E056F8241057F82420B5
:10492000881A002801DB014600E0414200EE101A1F
:10493000B8EEC00ADFED200A80EE208A684600EB60
:10494000840090ED000AB5EEC00AF1EE10FA18D01E
:10495000684600EB8400D0ED000A88EE200AF7EEEE
:10496000000A70EE608AB0EEE80A1448D0ED090A39
:10497000B4EEE00AF1EE10FA15DD0120A040054387
:1049800011E00E4890ED070AB4EEC80AF1EE10FAF5
:1049900006DC90ED080AB4EEC80AF1EE10FA02D275
:1049A0000120A0400543641C032CB5DB284603B05E
:1049B000BDEC028BF0BD000000008047EC790008E0
:1049C00010B541EC100BFFF73FFA51EC100B10BD86
:1049D0002DE9F0410446E07800F0C006E07800F0F0
:1049E0003F05607800F0010098B1EF102846E91704
:1049F00005EB5171C910A5EBC101491C01F0FF087D
:104A00000B48006820B10A48414602683846904782
:104A100000BF607800F0080030B10548406818B168
:104A2000B011034A516888470020BDE8F0810000BA
:104A30004402002038B5044664B120208DF80000FF
:104A400028208DF8010030208DF8020038208DF8E4
:104A5000030004E0A32204216846FBF71BFC6A461E
:104A6000042140F69E2002F07DFA01F067FE38BD79
:104A70003EB5044602208DF80000CA208DF80100E2
:104A8000E3208DF8020009208DF803006A46042116
:104A9000682002F067FAA3208DF8000004F04000BF
:104AA00048B1C0208DF80100C8208DF80200C22056
:104AB0008DF8030006E0A3208DF801008DF80200B8
:104AC0008DF8030004F4C07048B1C4208DF80400D0
:104AD000CC208DF80500C6208DF8060006E0A32046
:104AE0008DF804008DF805008DF80600A3208DF8E0
:104AF00007008DF808008DF809006A460A2140F683
:104B0000A72002F02FFA04F0030018B120208DF83E
:104B1000000002E0D8208DF800006A46012140F62E
:104B2000B62002F01FFA04F0200018B1012000F0B6
:104B3000ADF802E0002000F0A9F804F4C07008B35A
:104B400004F4807060B1B2208DF800008B208DF8E5
:104B50000100B6208DF802009B208DF803000BE0C9
:104B6000B0208DF8000080208DF80100B4208DF871
:104B7000020090208DF803006A46042140F6A2202E
:104B800002F0F0F904F0010020B3F8208DF80000E5
:104B90006A4601214FF40B6002F0E4F9FA21072084
:104BA00000F02CFC072000F0F3FB012000F013FCC8
:104BB000642000F003FD4FF4FA7000F012FDC821EC
:104BC000304800F0A3FB282000F0BCFB0A2000F0D6
:104BD000CCFB08E0D8208DF800006A4601214FF494
:104BE0000B6002F0BFF904F0020018B1D9208DF873
:104BF000000002E0D8208DF800006A46012140F252
:104C00003D7002F0AFF904F0040018B1012000F08B
:104C100069F802E0002000F065F804F0100018B117
:104C20000120FFF707FF02E00020FFF703FF44F039
:104C300008001549488101F081FD00201249887360
:104C400004F0400018B10846807B801D887304F48E
:104C5000C07020B10C48807B801D0B49887304F024
:104C6000140020B10848807B10300749887304F095
:104C7000030020B10448807B001D03498873002095
:104C80003EBD000009E3CA02440200203EB50446CE
:104C90006CB10EA1D1E900208968CDE90020029114
:104CA0006A4609214FF4976002F05CF93EBD0AA202
:104CB000D2E900109268CDE9010200916A4609210B
:104CC0004FF4976002F04EF9F0E70000B8AAB38DF8
:104CD000B4980D355D000000B8AAAAAAB088C3C573
:104CE000C700000038B5044664B1C0208DF800004C
:104CF000C2208DF80100C4208DF80200C6208DF876
:104D0000030004E08B2204216846FBF7C3FA6A46DD
:104D1000042140F6982002F025F901F00FFD38BD7E
:104D200010B5C8234FF48062024940F6F63001F016
:104D300099FB10BD147A00082DE9F04F8DB007469D
:104D4000884615469946DDE9166B00240020308020
:104D50006B49887B5A4605A901F050FC18B1601ECA
:104D60000DB0BDE8F08F6648807A00F0140000288E
:104D700067D09DF8140000069DF8151040EA014028
:104D80009DF8161040EA01209DF81710084328608E
:104D90009DF8180000069DF8191040EA01409DF8A2
:104DA0001A1040EA01209DF81B10084368609DF826
:104DB0001C0000069DF81D1040EA01409DF81E10E1
:104DC00040EA01209DF81F100843A8609DF82000CC
:104DD00000069DF8211040EA01409DF8221040EAAB
:104DE00001209DF823100843E86004F11000C4B2CC
:104DF000286800140190686800140290A8680014E4
:104E00000390E8680014049001984043029901FB64
:104E10000100039901FB0100049901FB010ABAF1A9
:104E2000706F02DBBAF1885F05DD01F087FC0020BE
:104E30003080401E94E7B6F9000040F48070308066
:104E400000BF2F48807A00F0400020B305A9601C05
:104E5000085C095D40EA012000B2A8F8000005A93D
:104E6000E01C095C05AAA01C105C41EA002000B20D
:104E7000A8F8020005A9601D095C201D105C41EA2C
:104E8000002000B2A8F80400A01DC4B2B6F90000CA
:104E900040F0080030801A48408900F4C07008B320
:104EA00005A9601C085C095D40EA012000B2388059
:104EB00005A9E01C095C05AAA01C105C41EA0020C1
:104EC00000B2788005A9601D095C201D105C41EAD4
:104ED000002000B2B880A01DC4B2B6F9000040F0B6
:104EE000700030800648807A00F0030018B105A9F0
:104EF0000819FFF76DFD484600F048FF00202FE736
:104F00004402002070B588B0064601A801F0F6F80A
:104F1000BDF804000021C90341EA5045C4034448D8
:104F2000007A00F0030056F8200005904048007A0F
:104F300000F0040010B10598404205903C48007A0A
:104F4000C0F3C10056F8200006903948007A00F0FE
:104F5000200010B10698404206903548007AC0F310
:104F6000811056F8200007903148008900F48070C5
:104F700010B10798404207900598C117A0FB042381
:104F800001FB043100FB0510810041EA927005909D
:104F90000698C117A0FB042301FB043100FB051098
:104FA000810041EA927006900798C117A0FB042384
:104FB00001FB043100FB0510810041EA927007906B
:104FC0000598000E8DF808000598000C8DF8090072
:104FD0000598000A8DF80A000598C0B28DF80B00FC
:104FE0000698000E8DF80C000698000C8DF80D0048
:104FF0000698000A8DF80E000698C0B28DF80F00D2
:105000000798000E8DF810000798000C8DF811001D
:105010000798000A8DF812000798C0B28DF81300A7
:1050200002AA0C214FF4257001F09CFF08B070BD5E
:105030004402002030B585B0044616A207CA02AB70
:1050400007C3C82C03DD4FF0FF3005B030BDC820CA
:1050500090FBF4F0401E85B2280A8DF80000E8B2FB
:105060008DF801006A46022140F2162001F07AFF15
:1050700010B14FF0FF30E8E702AA0C2140F6C12042
:1050800001F070FF10B14FF0FF30DEE7044884817B
:105090000020DAE7FEF2ABC4AAF1DFDFBBAFDFDF4F
:1050A000440200201FB504464848007A00F003007F
:1050B00054F8200001904548007A00F0040010B137
:1050C0000198404201904148007AC0F3C10054F871
:1050D000200002903D48007A00F0200010B10298B4
:1050E000404202903948007AC0F3811054F8200001
:1050F00003903648008900F4807010B10398404254
:1051000003903349019880FB0101800F40EA810040
:1051100001902F49029880FB0110820042EA9170B1
:1051200002902B49039880FB0110820042EA9170A3
:1051300003900198000E8DF800000198000C8DF886
:1051400001000198000A8DF802000198C0B28DF8A4
:1051500003006A4604214FF4747001F003FF18B194
:105160004FF0FF3004B010BD0298000E8DF8000023
:105170000298000C8DF801000298000A8DF80200D8
:105180000298C0B28DF803006A4604214FF475708E
:1051900001F0E8FE10B14FF0FF30E3E70398000E96
:1051A0008DF800000398000C8DF801000398000AA8
:1051B0008DF802000398C0B28DF803006A460421FE
:1051C0004FF4767001F0CEFECCE7000044020020E0
:1051D00009E3CA0210B586B0044647A000680390F0
:1051E00046A00068029046A00068019045A00068B3
:1051F000009004F0030003A9085C8DF8140003A8D4
:10520000C4F3C101405C8DF8150003A8C4F38111FB
:10521000405C8DF8160004F0030002A9085C8DF8CC
:10522000100002A8C4F3C101405C8DF8110002A86F
:10523000C4F38111405C8DF8120005AA032140F2ED
:10524000264001F08FFE18B14FF0FF3006B010BDC0
:1052500004AA032140F22A4001F084FE10B14FF06D
:10526000FF30F3E7019805900098049004F00400E3
:1052700058B19DF8140040F001008DF814009DF81D
:10528000100040F001008DF8100004F0200058B12B
:105290009DF8150040F001008DF815009DF81100F3
:1052A00040F001008DF8110004F4807058B19DF8B1
:1052B000160040F001008DF816009DF8120040F035
:1052C00001008DF8120005AA03214FF4886001F057
:1052D00049FE10B14FF0FF30B8E704AA032140F2B5
:1052E000314001F03FFE10B14FF0FF30AEE706480D
:1052F00004810020AAE700004CCD6C000CC92C00F2
:10530000365676002646660044020020F8B505466B
:105310000E464FF47A7095FBF0F000FB06F4200E79
:105320008DF80000200C8DF80100200A8DF8020095
:10533000E0B28DF803006A4604214FF4AE7001F02C
:1053400011FEF8BD38B50446052094FBF0F084B298
:1053500020128DF80000E0B28DF801006A460221AB
:105360004FF4AD7001F0FEFD38BD38B504460520A0
:1053700094FBF0F084B220128DF80000E0B28DF8BA
:1053800001006A4602214FF4AC7001F0EBFD38BD1C
:1053900038B504460020009004F0010020B19DF8CB
:1053A000000040F03000009004F0020020B19DF8B1
:1053B000000040F00C00009004F0040020B19DF8C3
:1053C000000040F0030000906A4601214FF4A470F1
:1053D00001F0C8FD38BD38B50446012C01DA0124BE
:1053E00002E0042C00DD0424601EC0B200906A4676
:1053F000012140F24F1001F0B5FD38BDF0B52DEDA3
:10540000028B83B006460F4606F0070010B1B7F5D1
:10541000C86F05DD4FF0FF3003B0BDEC028BF0BD6F
:1054200000EE107AB8EE400ADFED5B0A80EE208ACB
:1054300001A800F03DFE9DF80400022806D00428D3
:1054400017D0082828D010284CD138E09FED530AF7
:1054500028EE000ABCEEC00A10EE100A84B29FEDDE
:10546000500A28EE000ABCEEC00A10EE100A85B2FF
:105470003BE09FED4C0A28EE000ABCEEC00A10EE9D
:10548000100A84B29FED480A28EE000ABCEEC00A5A
:1054900010EE100A85B228E09FED440A28EE000ABB
:1054A000BCEEC00A10EE100A84B29FED410A28EE4D
:1054B000000ABCEEC00A10EE100A85B215E09FED9E
:1054C0003D0A28EE000ABCEEC00A10EE100A84B2B3
:1054D0009FED390A28EE000ABCEEC00A10EE100A51
:1054E00085B202E04FF0FF3096E700BF20128DF842
:1054F0000800E0B28DF8090028128DF80A00E8B221
:105500008DF80B0006F00100A0B102AA02214FF4B1
:10551000EA7001F027FD10B14FF0FF307CE70DF18C
:105520000A0202214FF4927001F01CFD10B14FF0FD
:10553000FF3071E706F00200A0B102AA02214FF489
:10554000EC7001F00FFD10B14FF0FF3064E70DF18A
:105550000A0202214FF4947001F004FD10B14FF0E3
:10556000FF3059E706F00400A0B102AA02214FF46F
:10557000EE7001F0F7FC10B14FF0FF304CE70DF189
:105580000A0202214FF4967001F0ECFC10B14FF0CA
:10559000FF3041E700203FE700004843000080461D
:1055A00000004046000000460000C0450000804565
:1055B00000004045000000450000C04438B50446E6
:1055C000052094FBF0F085B228128DF80000E8B2B7
:1055D0008DF801006A4602214FF4EF7001F0C2FC21
:1055E00038BD38B50446052094FBF0F085B228128A
:1055F0008DF80000E8B28DF801006A4602214FF4F0
:10560000ED7001F0AFFC38BD82B0CDE9000121F0B2
:10561000004001909DED000B02B051EC100B704763
:1056200013B50C464FF6FF73012269460248FCF79A
:1056300006FF00981CBD0000040200207CB5054652
:105640002E494968087801AB04220D21FDF7E8F9DD
:1056500008B107207CBD9DF80700C0F301109DF83C
:10566000041001F0E00140EAE1008DF800009DF82F
:105670000700C0F381009DF8051001F0E00140EA49
:10568000E1008DF801009DF8070000F003009DF88F
:10569000061001F0E00140EAE1008DF8020000246C
:1056A00027E01DF8040030B99FED150A05EB8400D2
:1056B00080ED000A1BE09FED130A05EB840080EDEE
:1056C000000A0BE005EB840090ED000ADFED0E0A06
:1056D00020EE200A05EB840080ED000A1DF804008E
:1056E000401EC0B20DF804000028EBD100BF601CC2
:1056F000C4B2032CD5DB0020ACE700009C000020E6
:10570000000000007B14AE3E1D5A843F2DE9F04F8F
:1057100087B005460C46914601208DF81000002008
:105720008DF81100FE4A1268917CFD4A526810788B
:1057300004AB0222FDF788F920B14FF0FF3007B02B
:10574000BDE8F08FC820FBF731F900208DF810007C
:10575000F34A1268D17BF24A5268107804AB0122F6
:10576000FDF772F910B14FF0FF30E8E7EC4A12682C
:105770005179EB4A5268107804AB0122FDF764F9C5
:1057800010B14FF0FF30DAE7E54A1268917CE44A45
:105790005268107804AB0122FDF756F910B14FF0B2
:1057A000FF30CCE7DE4A1268D17DDD4A52681078BE
:1057B00004AB0122FDF748F910B14FF0FF30BEE70E
:1057C000D74A12681179D64A5268107804AB012280
:1057D000FDF73AF910B14FF0FF30B0E70C208DF82B
:1057E0001000CF4A12681179CD4A5268107804AB84
:1057F0000122FDF729F910B14FF0FF309FE70F208C
:10580000FBF7D4F8C648806A407A8DF81000C44A85
:1058100012689178C24A5268107804AB0122FDF7F1
:1058200013F910B14FF0FF3089E7BD48806A007A64
:105830008DF81000BA4A12685178B94A5268107847
:1058400004AB0122FDF700F910B14FF0FF3076E70D
:10585000B9F1000F07D0B248806A807A40F0E000CA
:105860008DF8100004E0AE48806A807A8DF8100050
:10587000AB4A12689179AA4A5268107804AB0122A7
:10588000FDF7E2F810B14FF0FF3058E7B9F1000F23
:1058900007D0A348806AC07A40F0E0008DF810007D
:1058A00003E0A048C07A8DF810009D4A1268D179B3
:1058B0009B4A5268107804AB0122FDF7C5F810B17D
:1058C0004FF0FF303BE7B9F1000F02D0C820FBF7E3
:1058D0006DF840208DF81000914A12681179904AB5
:1058E0005268107804AB0122FDF7AEF810B14FF00A
:1058F000FF3024E778208DF81000894A126851792A
:10590000874A5268107804AB0122FDF79DF810B168
:105910004FF0FF3013E783498889FBF747F80020F1
:105920008DF810007E4A126851797D4A52681078CD
:1059300004AB0122FDF788F810B14FF0FF30FEE60E
:10594000774A1268917A764A5268107804AB02223C
:10595000FDF766F810B14FF0FF30F0E69DF811004A
:105960009DF8101040EA012B0C209BFBF0F0C6B212
:105970000020A86068602860A060606020608246A7
:1059800065E0674A1268D17A654A5268107804ABBC
:105990000C22FDF745F810B14FF0FF30CFE69DF82F
:1059A00011009DF8101040EA012000B2ADF8080087
:1059B0009DF813009DF8121040EA012000B2ADF8E6
:1059C0000A009DF815009DF8141040EA012000B26D
:1059D000ADF80C00BDF90810206808442060BDF93E
:1059E0000A10606808446060BDF90C10A0680844A3
:1059F000A0609DF817009DF8161040EA012000B243
:105A0000ADF800009DF819009DF8181040EA01203B
:105A100000B2ADF802009DF81B009DF81A1040EA94
:105A2000012000B2ADF80400BDF900102868084458
:105A30002860BDF90210686808446860BDF9041068
:105A4000A8680844A8600AF1010000F0FF0AB24506
:105A500097DB3448D0F800C02868C117090441EA30
:105A600010410704624600233846FAF7E2FB32464B
:105A70000023CDE90201FAF7DCFB28602948D0F8C1
:105A800000C06868C117090441EA10410704624672
:105A900000233846FAF7CDFB32460023CDE9020158
:105AA000FAF7C7FB68601F48D0F800C0A868C117A4
:105AB000090441EA10410704624600233846FAF718
:105AC000B8FB32460023CDE90201FAF7B2FBA86029
:105AD0001448D0F804C02168C817000440EA1148EF
